:020000040800F2
:1000000068190020D1000008AD2A00084D2A000818
:1000100000000000000000000000000000000000E0
:10002000000000000000000000000000FB2C0008A1
:100030000000000000000000B12A0008FD2C0008AC
:10004000E300000800000000E3000008E3000008EF
:10005000E3000008E3000008E3000008E3000008F4
:10006000E3000008E3000008E3000008E3000008E4
:10007000E3000008E3000008E300000800000000BF
:10008000E3000008812D0008912D0008E30000081E
:10009000E3000008E3000008E3000008E3000008B4
:1000A000E3000008E3000008E3000008E3000008A4
:1000B00009380008E30000080448854600F0C2FD46
:1000C0000048004725720008C046C0466819002055
:1000D0000448804704480047FEE7FEE7FEE7FEE7E6
:1000E000FEE7FEE77F2D0008B900000830B50B469B
:1000F000014600202022012409E00D46D5409D4202
:1001000005D31D469540491B254695404019154687
:10011000521E002DF1DC30BD70B5002425460028AC
:1001200001DA01244042002901DA01254942FFF7A2
:10013000DDFFAC4200D04042002C00D0494270BDEF
:1001400003460B439B0703D009E008C9121F08C0F0
:10015000042AFAD203E00B780370401C491C521E9B
:10016000F9D27047D2B201E00270401C491EFBD2A6
:1001700070470022F6E710B513460A4604461946B2
:10018000FFF7F0FF204610BD30B5044600200346BF
:1001900000E05B1C934203D2E05CCD5C401BF8D0D6
:1001A00030BDF8B502464A40D40F42004B00520819
:1001B0005B089A4202D20246084611464A0023D002
:1001C000C30D4A00DDB2120EAD1A202D35DA4902F8
:1001D0000126490AF6058A19002C00D05242202136
:1001E0004F1B1146B9402A411018C20D9A4221D026
:1001F000002C17D0012D08DCDA05801AD20F8019E7
:10020000D207DBB200F09EFBF8BDDA05801A0123AD
:1002100040001B06C01880185A428018CA0F1043AD
:10022000490007E04908C2071143DA05801A80191E
:100230004008801800F07EFBF8BD61000122511AD1
:10024000001BF7E70122D2075140AAE70122D2079B
:100250005040A6E7024670B54A40D30FDB07400086
:100260002DD04A002AD0010E140E000212020919E4
:10027000400A520A8418E50104465443000A120A4F
:100280002E045043A4194219200CC543AA18120C7D
:100290000125AD03521C521912047F39240400D0E9
:1002A000521C104301D44000491EC2B20C06C009C2
:1002B0002018401C4008802A02D003E0002070BDB6
:1002C00040084000002900DA0020184370BD70B5D6
:1002D00002464A40D50F40004A00ED074008520848
:1002E000002814D0002A12D0C40DD30D41020120E1
:1002F000C0055202490A520AE41A091812187D343C
:10030000914201D3641C00E04900002C01DA002076
:1003100070BD0023914201D3891A0343400849006C
:100320000028F7D100290AD0914202D10121C90742
:1003300005E0914201D2012101E00121C943E0051C
:10034000C018401900F0F6FA70BD0000F0B507467D
:100350000846584087B0C00F049048000E46590028
:1003600040084908BC1A884105D2384631461E4625
:1003700017460B4602465800400810434DD0300D3A
:10038000039040055900400D490D0590401A029018
:10039000402873DA18030121000B09050843019076
:1003A00004980092002806D01146019A4942002084
:1003B000904100910190029840210A1A01990098F9
:1003C00000F084FA05460C466B4607CB00F09FFA16
:1003D000C0197141039A0E0D0023D71756401A46D3
:1003E0007A40164344D0049A002A2DD0029A012A5A
:1003F000039A15DC1205C01A914101263605001C2E
:100400007141D20F059ED2070093019202962A46AF
:10041000234600F0DDFA07B0F0BD38463146FAE772
:100420001605234A0F46B218C01AB7410121090523
:10043000001C4F4100187F41114618187941E20F06
:1004400010436D19644113E0E2076D081543640819
:10045000C2071443039A01261205C01A91413605BA
:10046000001C7141CE07400830434908C018514173
:100470002A46234600F09FFACDE7FFE704980122C1
:100480004000C117121A00238B4104983146C4174B
:10049000381AA141EEE730B40124E407634030BCD0
:1004A00054E730B40124E407614030BC4EE700005B
:1004B0000000E0FFF0B51FB488B00B990998002444
:1004C00048400999C00F490049080991C0070B9994
:1004D0000090490049080B9109990898A6460843DD
:1004E0001CD00B990A98084318D0099801244000A1
:1004F000420D4800410D099824050003000B2043DC
:1005000009900B980003000B20430B9050181C49D6
:100510004018002201901446104605E000200146D4
:100520000DB0F0BD032801DA034600E003239C462A
:10053000C11A0AAE0AE05F0008ADED5B4F00F75B41
:100540007D430027AA187C41491C5B1E6145F2DDF2
:10055000410004AB5A522104120C0A43240C401CE3
:100560000828DFDB01980290009970460191009005
:10057000059B049A0799069800F02AFAD0E7000034
:100580000DFCFFFFF0B50C465C4085B0E40FE407BE
:1005900003944C000026640859009446490802461A
:1005A0000296224321D062460A431ED06200570DB4
:1005B0004A000E032303550D012402462C4924054D
:1005C000781B1B0B360B40182343264361460090D3
:1005D0001C46501AB44103D30098401C009002E01E
:1005E000921800985B41002803DA0020014605B00C
:1005F000F0BD0020012109050746864611E064464A
:100600001D46141BB54106D36546521BB3417446C3
:1006100007430C43A646CD074008490828439218D3
:100620005B4105460D43EAD11046184313D060469E
:10063000194650407140084306D06046101AB34135
:1006400006D20122002306E000220123DB0702E09C
:100650000122D2435310009874460105381C6141B1
:10066000029C039D0019694100F0A5F9BFE7000055
:10067000FD030000C217C10F504010B54018CA0753
:100680009623002100F05EF910BD10B500229623DC
:10069000114600F057F910BD0EB505490291002131
:1006A00000910A460B46019100F092F903B000BD9B
:1006B00033040000C20F410040020123400ADB0561
:1006C000D207090EC0187F2901DA00207047962949
:1006D00003DC9623591AC84001E096398840002A65
:1006E000F4D040427047410040020122400AD20546
:1006F000090E80187F2901DA00207047962903DC53
:100700009622511AC84070479639884070470000B9
:1007100070B5CD0F4A0009030123090B1B051943CE
:100720000B4BED070024520D9A4201DA002070BDF8
:10073000074B34339A4203DC9A1A00F0D7F802E0F0
:100740000449511888402C43F1D0404270BD00004C
:10075000FF030000CDFBFFFF4A0009030123090B43
:100760001B051943094B10B5520D9A4201DA0020BE
:1007700010BD064B34339A4203DC9A1A00F0B6F8E7
:1007800010BD03495118884010BD0000FF03000050
:10079000CDFBFFFFC20FD207400040080BD0C10DB8
:1007A0000723DB01C91840020905400A1143C208AA
:1007B00040071143704700200146704710B50029DB
:1007C00004DB0124E40740428C412146002B04DB7A
:1007D0001C460123DB075242A3418B4200D18242D7
:1007E00010BD000010B5002904DB0124E4074042DD
:1007F0008C412146002B04DB1C460123DB075242BF
:10080000A341994200D1904210BD0000CB0FDB07FD
:10081000490010B5490802460A4307D00A0D0724CB
:100820000903E401090B121B002A01DC002010BDA2
:10083000C900440F0C43C100E018D205801800F035
:1008400079F810BD0122D207002800DB101A002918
:1008500000DB511A814270470122D207002800DBD9
:10086000101A002900DB511A88427047F0B51FB4F6
:100870000646002082B005464024019100901BE00E
:10088000019922460F46304600F030F8049A059B45
:10089000801A994110D310461946224600F016F8E6
:1008A000361A8F410197224601200021009F00F057
:1008B0000DF838184D4100902046641E0028DFDCFA
:1008C000019B00982946324607B0F0BD10B5202A9A
:1008D00004DB0146203A9140002010BD91402023C6
:1008E0009C1A0346E3401943904010BD10B5202ADE
:1008F00004DB0846203AD040002110BD0B46D3400F
:10090000D0402024A21A91400843194610BD10B5CA
:10091000202A06DBCB170846203A1041C1170B43AB
:1009200006E00B461341D0402024A21A9140084310
:10093000194610BD002904DA401C490001D14008C5
:100940004000704770B40024050C05D11024000449
:1009500002D1002921D01124050E01D10002083452
:10096000050F01D10001241D850F01D18000A41CB9
:10097000002801DB4000641C002908D020252E1B24
:100980000D46F540A14000D001212943084301064E
:100990001B1B000ADB1D02D5002070BC7047DB0565
:1009A000181880180029F8DA401C4900F5D170BCED
:1009B00040084000704710B5002B08DA0024401CA6
:1009C000614192185B411A4301D14008400010BDBB
:1009D000F0B51FB482B005460C0003D0084602F003
:1009E00027FF02E002F024FF20300246009021465B
:1009F0002846FFF76BFF049B059A04460F461843F1
:100A00001143084314D0184610431BD000984021CE
:100A10000A1A18460599FFF769FF05460E46009A1F
:100A200005990498FFF752FF084305D0012004E020
:100A30002046394607B0F0BD0020C11705430E43DC
:100A40002C43374300990E986305401A7905E40A50
:100A500000220C43FD0A0A3002D500200146E9E7D6
:100A60000105101969410C9C0D9D00196941FFF7A2
:100A7000A2FFDFE7FEB500231A461B1A8A4103DBFB
:100A80000020014603B0F0BD4A000D0301212D0BEB
:100A90000905520D0D43D10702D100186D41521EB8
:100AA0005110FF31FF310131002704463E463846E0
:100AB000009701910246012100200905FFF716FF6A
:100AC000C3197141F818324684468E464A41614640
:100AD0002846611A904104D36046241A954176460F
:100AE0001F46241900986D41401C00903428E1DD18
:100AF000F91930467041091BA84103D20022D243A4
:100B0000134601E00022134601980105381C71418B
:100B1000FFF751FFB6E70000F8B50546480040086A
:100B20000C46284304D06000184A400D904201DD75
:100B30002846F8BD15493539884210DC88420BDB60
:100B4000290D200308432903014305D0E00F104974
:100B5000C00741180020F8BD00200146F8BD161A54
:100B60004020821B28462146FFF7B0FE0746009131
:100B7000284621463246FFF7B9FE3A46009BFFF76A
:100B80001AFF3246FFF7A2FEF8BD00003304000052
:100B90000000F03FFEB5CA0FD20701924A000E03D3
:100BA000012105460027360B09052448540D0E4344
:100BB0000097844219DA801E844200DA04461F48F6
:100BC00031461430021B17462846FFF78FFE0446B5
:100BD0003A46FFF77BFE45404E40354301D00121A8
:100BE00000E00021214300201AE014483430844200
:100BF00019DC1348314622182846FFF767FE0A46DB
:100C000078404940084301D0012700E000270B4805
:100C100017433430021B28463146FFF767FE39463A
:100C2000FFF788FE04E006492846403961188840ED
:100C3000019A0099114300D04042FEBDFF0300001D
:100C40000DFCFFFF064C0125064E05E0E36807CCCE
:100C50002B430C3C98471034B442F7D3FFF730FADB
:100C600004BD000824BD000870B54B005B080343B9
:100C70000BD04B005C0D002633466542B341D417C0
:100C8000AD1AA34102DB0020014670BD12053018E9
:100C9000514170BD0EB5C217C10F5040CA07401870
:100CA0000021054B0293019200910A460B46FFF783
:100CB0008FFE03B000BD00003304000072B600BF19
:100CC000FEE700000449496901221204024311436E
:100CD000014A5161704700000020024010B50246F1
:100CE0000C4B5B697F24E400A3431846042A03D01D
:100CF00001235B03184304E0012464030346A34378
:100D00001846CB000124240423439B1C0343014CBD
:100D1000636110BD0020024010B5084949690124F3
:100D20002143064C6161026000BF00BF00BFBFF3FA
:100D30006F8F00BF00BF00BF436010BD00200240A6
:100D4000F0B50246002314460D46114E7669012780
:100D5000BF043E430E4F7E6100BFEFF31086304666
:100D600072B605E02E6826602D1D241D5E1CF3B2B0
:100D7000402BF7D300BF064E366903273F043E40A1
:100D8000002EF8D100BF80F3108800BFF0BD000036
:100D90000020024070B5044600F0F0F90619032562
:100DA0002D0405E000F0EAF9B04201D3032070BD44
:100DB0001248006928400028F4D110480069104901
:100DC000084005460F480D490861002D03D00E4824
:100DD00045600120EBE700F0D1F9061905E000F0CD
:100DE000CDF9B04201D30320E1E7044800690121B5
:100DF000890408400028F2D100BFD8E70020024053
:100E0000FA830000FB83080038000020F8B5044690
:100E10000F4600BF22480078012801D10220F8BD0A
:100E200001201F49087000BF002048607D20C000DD
:100E3000FFF7B0FF0646002E2AD12068042808D10B
:100E40006068FFF73FFF7D20C000FFF7A3FF064665
:100E50001EE00020C0433860A5680DE029466068A8
:100E6000FFF73CFF7D20C000FFF794FF0646002EF1
:100E700001D03D6005E06D1CE168A0684018A84203
:100E8000ECD800BF07484069022188430549486102
:100E900000BF00200249087000BF3046BFE70000D5
:100EA0003800002000200240012007494969C2079C
:100EB0001143054A516111464969C90FC907002903
:100EC00000D000207047000000200240F0B51FB4A1
:100ED000064614461D4600BF18480078012802D176
:100EE000022005B0F0BD01201449087000BF0020A9
:100EF00048607D20C000FFF74DFF0746002F15D149
:100F0000012E05D122462B460198FFF705FF03E08D
:100F100021460198FFF714FF7D20C000FFF73AFF3C
:100F2000074607484069B0430549486100BF0020B3
:100F30000249087000BF3846D3E70000380000209F
:100F400000200240002009494969C90FC90700294A
:100F50000BD00749054A91600649916011464969DD
:100F6000C90FC907002900D00120704700200240A6
:100F700023016745AB89EFCD70B503460A460021D2
:100F8000DCE001268E4014683440002C73D01579C3
:100F9000AD07AD0F012D04D01579AD07AD0F022DB2
:100FA00018D198684E000325B5400646AE4330463A
:100FB0004E00D568B54028439860586801258D409B
:100FC0000646AE4330461026556835402D098D4003
:100FD000284358601579AD07AD0F032D0BD0D868A5
:100FE0004E000325B5400646AE4330464E00956898
:100FF000B5402843D8601579AD07AD0F022D15D146
:10100000CD08AE001D462035A8594D07EE0E0F2520
:10101000B5400646AE4330464E07F60E1569B5405C
:101020002843CD08AD001E462036705118684E008A
:101030000325B5400646AE4330461579AD07AD0FE2
:101040004E00B540284318600326360455683540E5
:10105000002D72D03C4D8E08B600A8598D07EE0EBB
:101060000F25B5400646AE43304605252D07AB4259
:1010700002D1002515E060E0344DAB4201D10125DD
:101080000FE0334DAB4201D102250AE0314DAB42B6
:1010900001D1032505E0304DAB4201D1042500E02C
:1010A00005258E07F60EB5402843274D8E08B6005D
:1010B000A851254D203528680546A5432846012618
:1010C000360455683540002D02D005462543284694
:1010D0001D4D2035286068680546A5432846012631
:1010E000760455683540002D02D005462543284634
:1010F000154D20356860144D603D28680546A543B0
:1011000028460126360555683540002D02D0054693
:10111000254328460C4D603D286068680546A54378
:1011200028460126760555683540002D02D0054633
:1011300025432846044D603D6860491C1568CD4034
:10114000002D00D01DE770BD601802400004005063
:1011500000080050000C00500010005002461369B7
:101160000B40002B01D0012000E000207047002A36
:1011700001D0816100E08162704700000148006891
:101180007047000000000020034800680349097808
:101190004018014908607047000000200800002046
:1011A00010B5002408480068FF21013108430649B2
:1011B0000860032000F00AF8002801D0012401E0B3
:1011C00000F034F8204610BD00200240F8B5044677
:1011D00000251348007800281ED0114801787D2092
:1011E000C000FEF783FF074639460E480068FEF749
:1011F0007DFF064600F0C6FE00280BD1042C07D266
:1012000000222146401E00F067F80748046004E011
:10121000012502E0012500E001252846F8BD000077
:10122000080000200C0000200400002008B500BFCA
:1012300010480068012108430E490860084600680C
:10124000C007C00F009000BF00BF00BF0948403872
:10125000C06B8905084307494039C8630846C06B1D
:1012600009040840009000BF00BF0320400200F0C6
:101270007DFE08BD401002400146002915DBCB066B
:10128000DB0E01229A400A4B1A6000BF00BF00BF6C
:10129000BFF34F8F00BF00BF00BF00BF00BF00BF44
:1012A000BFF36F8F00BF00BF00BF00BF70470000DB
:1012B00080E100E00146002909DB00BF00BFCB064A
:1012C000DB0E01229A40034B1A6000BF00BF00BF33
:1012D0007047000000E100E070B504460D46164678
:1012E0002946204602F0F8FA70BD000070B50446A9
:1012F0001148006803214902884320430E490860D1
:101300004815844216D10D49096806225143084602
:101310000B49FEF7EBFE451C05E0002D01D06D1ECC
:1013200001E0032070BD04484069012189020840A2
:101330008842F2D00020F5E7007000400C00002049
:1013400040420F0070B504460D46002C01D101202B
:1013500070BD6B4800684007400FA84218D268482B
:101360000068C008C000284365490860FFF706FF11
:10137000064607E0FFF702FF801B6249884201D959
:101380000320E5E75E4800684007400FA842F1D11E
:10139000022120680840022815D104212068084055
:1013A000042807D15848806807210903884340185A
:1013B00055498860544880680F2109028843A16814
:1013C0000843514988602078C007C00F002854D0D6
:1013D0006068012808D14C48006801214904084090
:1013E00000282ED10120B3E76068022808D14648C2
:1013F0000068012149060840002822D10120A7E702
:101400006068002808D1404800680121890208402E
:10141000002816D101209BE76068032808D13A48CC
:101420004030006A0221084000280AD101208FE7DD
:1014300035484030C06902210840002801D1012010
:1014400086E731488068C008C000616808432E49BB
:101450008860FFF793FE064607E0FFF78FFE801BCC
:101460002849884201D9032072E72748806838213B
:1014700008406168C9008842EFD1214800684007F0
:10148000400FA84218D91E480068C008C000284371
:101490001B490860FFF772FE064607E0FFF76EFE85
:1014A000801B1849884201D9032051E7144800687D
:1014B0004007400FA842F1D10421206808400428C9
:1014C00008D111488068072109038843E16808436F
:1014D0000D49886000F03AF80B4989680F22120222
:1014E0001140090A8900094A515CC906C90EC84061
:1014F0000749086007480068FFF768FE28E7000012
:1015000000200240881300000010024094BA000836
:101510000C00002004000020014800687047000013
:101520000C00002000B5FFF7F7FF06498968072285
:1015300012031140090B8900034A515CC906C90E08
:10154000C84000BD00100240D4BA0008FEB53548BE
:1015500080683821084000280DD13248006809020F
:101560000840C10A0120884000902F480099FEF7EA
:10157000BDFD044654E02B48806838210840082807
:1015800001D12A4C4CE027488068382108401028B7
:1015900034D12448C0688607B60F2248C06870213D
:1015A00008400009401C0190022E0FD0032E0CD1E0
:1015B0001E480199FEF79AFD1A49C9687F22120256
:1015C0001140090A484305460DE000BF164801993D
:1015D000FEF78CFD1349C9687F2212021140090AE7
:1015E0004843054600BF00BF0E48C068400F471C77
:1015F00039462846FEF77AFD044611E0094880681E
:1016000038210840202801D1840209E0054880687B
:1016100038210840182802D17D24240200E000244B
:101620002046FEBD001002400024F40000127A00A3
:10163000FEB50446002C01D10120FEBD2078C00774
:10164000C00F00286FD0F748876838210F40C06866
:101650008607B60F102F01D1032E01D0082F0BD112
:10166000F048006801214904084000285BD0606808
:10167000002858D10120E0E700BF0121090460687B
:10168000884205D1E74800680843E649086021E040
:1016900005210904606888420ED1E24800680121F2
:1016A00089040843DF4908600846006801210904ED
:1016B0000843DC4908600DE0DA48006801210904AC
:1016C0008843D84908600846006801218904884396
:1016D000D449086000BF6068002812D0FFF74EFDB3
:1016E000054606E0FFF74AFD401B642801D90320A8
:1016F000A3E7CC4800680121490408400028F1D044
:1017000011E0FFF73BFD054606E0FFF737FD401B04
:10171000642801D9032090E7C248006801214904E8
:1017200008400028F1D1022120680840022873D126
:10173000BC488068382108400746BA48C068860718
:10174000B60F102F01D1022E01D0002F36D1B5488F
:101750000068012189020840002804D0E0680028C0
:1017600001D1012069E7AF4840687F210902884321
:10177000616909020843AB494860002F16D1084649
:1017800000680721C902884321690843A549086008
:10179000084600680722D2021040C20A0120904089
:1017A0000146A148FEF7A2FCA0490860A0480068D5
:1017B000FFF70CFD002849D001203EE7E068002833
:1017C0002BD0984800680721C90288432169084343
:1017D00094490860084600688915084391490860E3
:1017E000FFF7CCFC054606E0FFF7C8FC401B0228CB
:1017F00001D9032021E78B480068012189020840B4
:101800000028F1D0874840687F2109028843616938
:10181000090208438349486018E082480068FF21B4
:10182000013188437F490860FFF7A8FC054606E0C0
:10183000FFF7A4FC401B022801D90320FDE67948EC
:1018400000680121890208400028F1D108212068A0
:101850000840082849D17348806838210840182872
:101860000BD170484030006A0221084000283CD06B
:10187000A069002839D10120DFE6A06900281AD02C
:1018800068484030006A01210843664940310862D7
:10189000FFF774FC054606E0FFF770FC401B0228CA
:1018A00001D90320C9E65F484030006A02210840A0
:1018B0000028F1D019E05B484030006A4008400041
:1018C000584940310862FFF759FC054606E0FFF72A
:1018D00055FC401B022801D90320AEE65148403098
:1018E000006A022108400028F1D104212068084044
:1018F00004287CD1002001904A48806838210840A3
:1019000020280BD147484030C069022108400028F8
:101910006ED0A06800286BD101208EE64148C06BD4
:10192000010F01208843002810D000BF3D48C06B44
:101930000121090708433B49C8630846C06B0904F5
:101940000840009000BF00BF0120019039480068A6
:10195000FF2101310840002816D1364800680843AD
:1019600034490860FFF70AFC054606E0FFF706FC6D
:10197000401B022801D903205FE62E480068FF21A2
:10198000013108400028F1D000BFA068012808D12B
:1019900024484030C0690121084322494031C861D0
:1019A00020E0A06805280FD11E484030C0690421FE
:1019B00008431C494031C8610846C06901210843F9
:1019C00018494031C8610DE016484030C0694108EF
:1019D000490014484030C161C0690421884311495D
:1019E0004031C86100BFA068002816D001E040E087
:1019F0003EE0FFF7C3FB054607E0FFF7BFFB401BD8
:101A00000D49884201D9032017E606484030C069D5
:101A1000022108400028F0D01EE0FFF7AFFB05468A
:101A200014E00000001002400024F4000C0000202C
:101A3000040000200070004088130000FFF79EFBA8
:101A4000401B6849884201D90320F6E56648C06911
:101A5000022108400028F1D10198012808D16248EC
:101A60004038C06B0121090788435F494039C8638A
:101A700000BFE06900285CD05B48403880683821AE
:101A8000084010286FD0E069022853D156484038EA
:101A90000068012109068843534940390860FFF76F
:101AA0006DFB054606E0FFF769FB401B022801D9E4
:101AB0000320C2E54C48403800680121490608402F
:101AC0000028F0D1616A206A0843A16A090208432C
:101AD000E16A0843216B0843616B0843424940397E
:101AE000C968424A114008433F494039C860084626
:101AF00000680121090608433B494039086008464F
:101B0000C0680904084338494039C860FFF736FB0C
:101B1000054606E0FFF732FB401B022801D90320EF
:101B20008BE531484038006801214906084000280B
:101B3000F0D054E02C484038006801210906884361
:101B40002949403908600846C06880088000C8609C
:101B50000846C0682649084023494039C860FFF755
:101B60000DFB054607E00FE0FFF708FB401B0228CE
:101B700001D9032061E51C4840380068012149066D
:101B800008400028F0D12AE0E069012800D154E59E
:101B900015484038C668B107890F206A81421CD1B8
:101BA00070203040616A884217D17F2000023040A7
:101BB000A16A0902884210D11F2040043040E16A26
:101BC00088420AD1072040063040216B884204D168
:101BD000710F4907606B814201D001202DE5002083
:101BE0002BE5000088130000401002408C80C111DA
:101BF000FFFFFEEE70B50446002C01D1012070BD40
:101C0000606A002808D1FF2105316068884200D150
:101C100005E00021E16102E0002121616161002114
:101C2000A1625D20005D002804D15C2001552046A2
:101C300000F066F802215D2001552068006840210F
:101C400088432168086007210902E068884201D9B9
:101C5000002501E001252D030F210902E0688842DB
:101C600006D007210902E068884201D00021A16264
:101C7000FF2105316068084021229202A1681140CD
:101C800008430222216911400843217DC907C90F79
:101C900008431202A169114008433822E16911404A
:101CA00008438022216A114008439201A16A114031
:101CB000084321680860A069000C04210840102234
:101CC000616A114008430822616B114008430F22EA
:101CD0001202E16811400843012109032940084329
:101CE000216848602068C0690121C90288432168D1
:101CF000C8610020206601215D20015500207EE79B
:101D00007047FFB585B004461D460E9E0120019028
:101D10000020009000BF5C20005D012802D102205D
:101D200009B0F0BD01215C20015500BFFFF726FA84
:101D300007465D20005D029060680390049502985C
:101D400001280DD0FF2105310398884205D1A068F4
:101D5000002802D10298042802D002200090FBE063
:101D60000698002804D00798002801D0002D02D141
:101D700001200090F0E05D20005D042802D00521E4
:101D80005D200155002020660798206446200553F9
:101D9000442005530698A063E587A5870020E064EA
:101DA000206507210902E068884207D92068406859
:101DB0000121090388432168486006E020684068E3
:101DC0000121090308432168486020680068402118
:101DD0000840402804D02068006808432168086053
:101DE00007210902E068884254D96068002802D0BF
:101DF0000498012809D1A06B00882168C860A06BF5
:101E0000801CA063E08F401EE0873BE02068806874
:101E100002210840022811D1E08F00280ED001983D
:101E200001280BD1A06B00882168C860A06B801CC2
:101E3000A063E08F401EE08700200190206880684A
:101E4000C007C00F002812D04620005B00280ED02B
:101E50002068C068216C0880206C801C20644620AB
:101E6000005B401E81B24620015301200190FFF724
:101E700085F9C01BB04205D3701C002802D0032096
:101E8000009069E0E08F0028C0D14620005B002868
:101E9000BCD155E06068002802D00498012809D11F
:101EA000A06B007821680873A06B401CA063E08FD2
:101EB000401EE0873DE0206880680221084002283B
:101EC00011D1E08F00280ED0019801280BD1A06B12
:101ED000007821680873A06B401CA063E08F401E4F
:101EE000E0870020019020688068C007C00F0028AC
:101EF00012D04620005B00280ED02068007B216CA9
:101F00000870206C401C20644620005B401E81B29B
:101F10004620015301200190FFF730F9C01BB04269
:101F200002D3701C002801D1002E02D103200090A2
:101F300012E0E08F0028BED14620005B0028BAD115
:101F40003A463146204600F0B4FD002803D0012077
:101F500000902020206600BF01215D20015500BFB8
:101F600000215C20015500BF0098D9E604490968AA
:101F70000322520291430143014A1160704700005D
:101F80000000014070B504462546681E0949884294
:101F900001D901200CE0681E074948610321081F90
:101FA00001F09AFC002004498861072008610020A4
:101FB00070BD0000FFFFFF0000E000E070477047C9
:101FC0007047000030B502460B4600BF3C20805CE5
:101FD000012801D1022030BD01253C20855400BFDD
:101FE00002253D20855410684168106884681A4DA8
:101FF0001068A84206D10F252D050846A8430146C2
:102000005868014370250846A843014618680143F3
:1020100010684160104D1068A8420BD00F4D106839
:10202000A84207D00E4D1068A84203D00D4D10688D
:10203000A84207D180252046A84304469868044357
:102040001068846001253D20855400BF00253C2098
:10205000855400BF0020BEE7002C01400004004072
:10206000000800400040014010B50446002C01D19A
:10207000012010BD3D20005D002805D100213C203D
:102080000155204600F026F802213D200155211D72
:10209000206800F085FE01214820015500BF3E2048
:1020A00001553F2001554020015541200155422056
:1020B00001554320015500BF00BF44200155452074
:1020C0000155462001554720015500BF3D200155CF
:1020D0000020CEE77047000001463D20405C01280B
:1020E00001D00120704702233D2043540868C06896
:1020F000012318430B68D860134B086898420BD033
:10210000124B0868984207D0114B0868984203D0D8
:10211000104B086898420FD1086882680E4B1A402D
:10212000062A0FD0D81F82420CD00868006801230D
:1021300018430B68186005E008680068012318431D
:102140000B6818600020CDE7002C0140000400401F
:10215000000800400040014007000100F8B50446B7
:102160000D4600BF3C20005D012801D10220F8BDD2
:1021700001213C20015500BF02213D20015520686E
:10218000866839480640FF210902304688430646E2
:10219000206886602868502834D00CDC202851D074
:1021A00004DC00284CD0102852D14AE030284AD014
:1021B00040284DD13AE060282ED0702807D0012168
:1021C0000903401A02D0401A42D10DE041E0EB6809
:1021D0006A68A968206800F04CFE2068866877204D
:1021E00006432068866034E0EB686A68A968206866
:1021F00000F03FFE206880680121890308432168C0
:10220000886026E0EA686968206801F015F85021C6
:10221000206800F03DFE1CE0EA686968206801F073
:1022200024F86021206800F033FE12E0EA68696853
:10223000206801F001F84021206800F029FE08E044
:1022400000BF00BF00BF2968206800F021FE00E049
:1022500000BF00BF01213D20015500BF00213C20EF
:10226000015500BF002082E788FFCEFF70470000C5
:1022700010B5044620680069022108404008002883
:102280001CD02068C06808404008002816D0481FAD
:102290002168086101202077206880698007800F0D
:1022A000002803D02046FFF7E1FF05E0204600F0BC
:1022B000DBF8204600F0CCF9002020772068006988
:1022C00004210840800800281DD02068C06808400C
:1022D0008008002817D0C8432168086102202077B1
:1022E00020688069032109020840002803D02046A5
:1022F000FFF7BCFF05E0204600F0B6F8204600F0EE
:10230000A7F9002020772068006908210840C0084C
:1023100000281CD02068C0680840C008002816D0DB
:10232000C84321680861042020772068C0698007BD
:10233000800F002803D02046FFF798FF05E02046D5
:1023400000F092F8204600F083F900202077206802
:10235000006910210840000900281DD02068C068CD
:1023600008400009002817D0C843216808610820E8
:1023700020772068C069032109020840002803D0A3
:102380002046FFF773FF05E0204600F06DF8204679
:1023900000F05EF90020207720680069C007C00FB8
:1023A00001214840484000280CD02068C0680840FF
:1023B00048404840002805D0C81E216808612046D2
:1023C00000F0E2F92068006980210840C009002877
:1023D0000BD02068C0680840C009002805D0C84359
:1023E000216808612046FFF7EAFD20680069FF21A7
:1023F00001310840000A00280CD02068C068802104
:102400000840C009002805D0164821680861204608
:10241000FFF7D4FD206800694021084080090028AA
:102420000BD02068C06808408009002805D0C84348
:1024300021680861204600F0B9F920680069202170
:102440000840400900280BD02068C06808404009B7
:10245000002805D0C843216808612046FFF7B0FD79
:1024600010BD0000FFFEFFFF704770B504460D462B
:10247000164600BF3C20005D012801D1022070BD3E
:1024800001213C20015500BF0C2E54D006DC002E4B
:1024900009D0042E1ED0082E7DD135E0102E64D038
:1024A000142EF9D17AE02946206800F0FDFC20685E
:1024B00080690821084321688861206880690421B7
:1024C00088432168886120688069296908432168F8
:1024D00088617EE02946206800F03EFD2068806922
:1024E0000121C902084321688861206880690121AF
:1024F0008902884321688861206880692969090206
:1025000008432168886164E02946206800F084FD62
:102510002068C069082108432168C8612068C06933
:10252000042188432168C8612068C069296908437B
:102530002168C8614DE02946206800F0CBFD206885
:10254000C0690121C90208432168C8612068C069C7
:102550000121890288432168C8612068C06929690E
:10256000090208432168C86133E02946206800F069
:10257000F1FD2068406D0821084321684865206806
:10258000406D04218843216848652068406D2969B1
:102590000843216800E01BE048651AE029462068EE
:1025A00000F010FE2068406D0121C9020843216837
:1025B00048652068406D012189028843216848658B
:1025C0002068406D2969090208432168486500E0D8
:1025D00000BF00BF00BF00213C20015500BF00200C
:1025E0004DE710B50446002C01D1012010BD3D205F
:1025F000005D002805D100213C200155204600F057
:1026000026F802213D200155211D206800F0C8FB5D
:1026100001214820015500BF3E2001553F200155B2
:1026200040200155412001554220015543200155CC
:1026300000BF00BF442001554520015546200155EB
:102640004720015500BF3D2001550020CEE77047CF
:102650007047000070B504460D46002D02D13E20A3
:10266000005D15E0042D02D13F20005D10E0082D33
:1026700002D14020005D0BE00C2D02D14120005D15
:1026800006E0102D02D14220005D01E04320005DF4
:10269000012801D0012070BD002D03D102213E2070
:1026A00001551AE0042D03D102213F20015514E009
:1026B000082D03D10221402001550EE00C2D03D13D
:1026C00002214120015508E0102D03D102214220B2
:1026D000015502E0022143200155012229462068CC
:1026E00000F0B6FB2149206888420BD020492068C1
:1026F000884207D01F492068884203D01E492068BD
:10270000884201D1012000E00020002806D0206886
:10271000406C0121C90308432168486413492068BB
:1027200088420BD015492068884207D01449206898
:10273000884203D00E49206888420FD120688668FD
:1027400010490E40062E0FD0C81F86420CD02068BC
:102750000068012108432168086005E020680068DE
:102760000121084321680860002094E7002C014003
:102770000040014000440140004801400004004086
:10278000000800400700010010B5044605488442D7
:1027900002D107F067F804E00348844201D107F052
:1027A000D1F910BD30010020E4000020704701463F
:1027B00000BF8020405C012801D102207047012326
:1027C0008020435400BF24238420435008680268BB
:1027D00008680068400840000B68186001235B0728
:1027E000104698430246002048660868026020238D
:1027F0008420435000BF00238020435400BF0020AA
:10280000DCE770B504460D4600BF8020005D01285E
:1028100001D1022070BD01218020015500BF24217B
:102820008420015120680668206800684008400044
:10283000216808602068806807214906884328438A
:1028400021688860204600F029FD2068066020216C
:102850008420015100BF00218020015500BF0020CD
:10286000D8E770B504460D4600BF8020005D012802
:1028700001D1022070BD01218020015500BF24211B
:1028800084200151206806682068006840084000E4
:102890002168086020688068C000C008284321685B
:1028A0008860204600F0FAFC206806602021842021
:1028B000015100BF00218020015500BF0020D9E751
:1028C00010B50446002C01D1012010BDA0690028DC
:1028D00000D000E000BF84200059002805D100216D
:1028E00080200155204600F02CF82421842001513D
:1028F000206800684008400021680860204600F019
:10290000B5FD012800D1E0E7A06A002802D02046EA
:1029100000F0F8FC206840680921C902884321685A
:102920004860206880682A21884321688860206880
:1029300000680121084321680860204600F05AFD24
:10294000C3E77047FFB583B004460D4617468420A1
:102950000059202878D1002D01D0002F02D101206C
:1029600007B0F0BD01210903A068884208D12069A1
:10297000002805D1E807C00F002801D00120EFE7AB
:1029800000BF8020005D012801D10220E8E701217D
:102990008020015500BF00218C200151212184207D
:1029A0000151FEF7EBFB01905420075356200753CB
:1029B00001210903A068884205D12069002802D1BD
:1029C0000026029502E02E460020029000BF002162
:1029D0008020015500BF21E0069800900022802150
:1029E0002046019B00F080FE002801D00320B7E7BD
:1029F000002E09D102980088C005C00D21688862A8
:102A00000298801C029003E0307821688862761C6E
:102A10005620005B401E81B2562001535620005BB9
:102A20000028D9D106980090002240212046019B21
:102A300000F05AFE002802D0032091E704E0202194
:102A40008420015100208BE7022089E700BFFEE7C8
:102A500008B500BF1448406B012108431249486380
:102A60000846406BC007C00F009000BF00BF00BF0A
:102A70000846406B022108430B4948630846406BF7
:102A800002210840009000BF00BF00BF0648406B15
:102A900004210843044948630846406B0421084068
:102AA000009000BF00BF08BD0010024000BFFEE75D
:102AB0007047F8B504460E461546334600220321FA
:102AC000C9022046009500F029F8002805D0206EA4
:102AD0002021084320660320F8BD334600228021D0
:102AE0002046009500F098F8002805D0206E20219F
:102AF000084320660320EFE7334600220321490202
:102B00002046009500F00AF8002805D0206E20210C
:102B1000084320660320DFE70020DDE7F0B585B03D
:102B200004460D4616461F4600200090FEF726FB81
:102B30000A99401A381A0390FEF720FB0290206889
:102B40000C3001903348006823214843000D03995D
:102B50004843049056E003204002854206D1002EEF
:102B600004D101980178009168460078781C00280B
:102B700048D0FEF703FB0299411A0398814202D222
:102B80000398002837D120684068E02188432168F5
:102B90004860FF210531606888420ED10121C903D8
:102BA000A068884203D04911A068884205D12068F6
:102BB0000068402188432168086001214903A06A18
:102BC00088420DD100BF20680068884321680860F2
:102BD000206800680121490308432168086000BF9C
:102BE00001215D20015500BF00215C20015500BF7F
:102BF000032005B0F0BD0498002800D1039004988C
:102C0000401E0490206880682840B042A3D1002074
:102C1000EFE700000C000020FFB583B004460D462E
:102C20001E46FEF7ABFA0C99401A371AFEF7A6FAC1
:102C300001902F4800684001000D7843029049E060
:102C4000701C002846D0FEF799FA0199401AB84244
:102C500001D2002F37D120684068E02188432168E5
:102C60004860FF210531606888420ED10121C90307
:102C7000A068884203D04911A068884205D1206825
:102C80000068402188432168086001214903A06A47
:102C900088420DD100BF2068006888432168086021
:102CA000206800680121490308432168086000BFCB
:102CB00001215D20015500BF00215C20015500BFAE
:102CC000032007B0F0BD0298002800D10027029829
:102CD000401E0290206880682840A84201D101214E
:102CE00000E0002105988142AAD10020E9E7000018
:102CF0000C000020014608687047704710B5FEF7C9
:102D000043FA10BD00B593B0382105A8FDF731FA9C
:102D10000020019002900390049001204002FEF7F1
:102D2000E5FA02200590C00108900020099040209B
:102D30000A9002200C9002210D9100210E91082191
:102D40000F9101041091010611910107129105A83C
:102D5000FEF76EFC002801D0FDF7B0FF07200190C0
:102D600002200290002003900490022101A8FEF7A7
:102D7000E9FA002801D0FDF7A1FF13B000BD7047AC
:102D800010B50248FFF774FA10BD0000E4000020FF
:102D900010B50248FFF76CFA10BD000030010020AA
:102DA00010B50268234B984205D0234B984202D0BD
:102DB000224B984205D170241346A3431A464B6810
:102DC0001A431C4B984211D01B4B98420ED01B4B00
:102DD00098420BD01A4B984208D01A4B984205D013
:102DE000194B984202D0194B984206D10324240271
:102DF0001346A3431A46CB681A4380241346A343C1
:102E00004C6923431A4602608B68C3620B68836275
:102E1000084B984208D00B4B984205D00A4B984279
:102E200002D00A4B984201D10B690363012343612D
:102E300010BD0000002C01400004004000080040CC
:102E40000020004000400140004401400048014093
:102E500070B5CD06ED0E0124AC402346046A9C43B8
:102E60000462046ACE06F60E1546B5402C43046291
:102E700070BD70B50C468168FF2636020D46B5431D
:102E800029461D02154325432943816070BD00007A
:102E90000A468168034B1940072313431943816095
:102EA000704700008FFFCFFF70B5056A6D086D0099
:102EB0000562026A43688469224D2C40A408A4007C
:102EC0000D682C4302261546B5432A468D682A43D1
:102ED0001D4DA84200D10BE01C4DA84200D107E0D7
:102EE0001B4DA84200D103E01A4DA8420AD100BFF1
:102EF00008261546B5432A46CD682A4304261546BA
:102F0000B5432A46104DA84208D0104DA84205D01E
:102F10000F4DA84202D00F4DA8420CD1FF2601361A
:102F20001D46B5432B4676001D46B5432B464D69DD
:102F30002B438D692B43436084614D684563026276
:102F400070BD00008FFFFEFF002C014000400140DB
:102F5000004401400048014070B5056A1026B543A1
:102F60000562026A43688469264D2C4003263602B6
:102F70002546B5432C460D682D022C4320261546C8
:102F8000B5432A468D682D012A431F4DA84200D122
:102F90000BE01E4DA84200D100BF1D4DA84200D13C
:102FA00000BF1C4DA8420BD10AE080261546B54350
:102FB0002A46CD682D012A4340261546B5432A46A8
:102FC000114DA84208D0114DA84205D0104DA8427D
:102FD00002D0104DA8420ED10126B6021D46B543BF
:102FE0002B4676001D46B5432B464D69AD002B435D
:102FF0008D69AD002B43436084614D688563026237
:1030000070BD0000FF8FFFFE002C0140004001401A
:10301000004401400048014070B5056AFF260136B2
:10302000B5430562026A4368C469254D2C40A40873
:10303000A4000D682C4376001546B5432A468D68DA
:103040002D022A431F4DA84200D10BE01E4DA8427D
:1030500000D100BF1D4DA84200D100BF1C4DA842A9
:103060000CD10BE00126F6021546B5432A46CD6881
:103070002D022A4376101546B5432A46114DA84223
:1030800008D0114DA84205D0104DA84202D0104DD5
:10309000A8420ED1012636031D46B5432B467600C5
:1030A0001D46B5432B464D692D012B438D692D01DE
:1030B0002B434360C4614D68C563026270BD00006C
:1030C0008FFFFEFF002C0140004001400044014002
:1030D0000048014070B5056A01263603B543056214
:1030E000036A4468C269164D2A4003263602154613
:1030F000B5432A460D682D022A43012676031D4654
:10310000B5432B468D682D032B430E4DA84208D0A6
:103110000D4DA84205D00D4DA84202D00C4DA8423D
:1031200007D10126B6032546B5432C464D69AD01AE
:103130002C434460C2614D680564036270BD0000A9
:10314000FF8FFFFE002C0140004001400044014081
:103150000048014070B5056A01263604B543056292
:10316000036A4468426D124D2A400D682A43760076
:103170001D46B5432B460D892D042B430D4DA8420A
:1031800008D00D4DA84205D00C4DA84202D00C4DE0
:10319000A84207D1012636042546B5432C464D6981
:1031A0002D022C43446042654D688565036270BD05
:1031B0008FFFFEFF002C0140004001400044014011
:1031C0000048014070B5056A01263605B543056221
:1031D000036A4468426D134D2A400D682D022A434C
:1031E00076001D46B5432B460D892D052B430E4D0C
:1031F000A84208D00D4DA84205D00D4DA84202D0DE
:103200000C4DA84207D10126B6042546B5432C46ED
:103210004D69AD022C43446042654D68C56503624B
:1032200070BD0000FF8FFFFE002C014000400140F8
:10323000004401400048014070B50B461446026A44
:10324000056A6D086D0005628169F0260D46B5437B
:103250002946250129430A261546B5432A4615461F
:103260001D432A468161026270BD70B50B4614464B
:10327000056A1026B54305628169026A0F26360386
:103280000D46B543294625032943A0261546B543D7
:103290002A461D012A438161026270BDF8B50446C9
:1032A000606E002805D101216A2001536820015376
:1032B00022E008270822009220688068072149063A
:1032C0000840450E20688068460F0C4A915D0C4A04
:1032D000935D009A53431846FCF71EFF81B26A20A3
:1032E0000153064A515D064A525D7A431046FCF787
:1032F00013FF81B268200153F8BD000083BA0008B3
:103300007BBA0008018DC907C90F002908D00168E0
:103310004968012252049143C26A11430268516014
:103320000222816A1140022907D101684968D2034B
:103330009143026B1143026851600422816A11407B
:10334000042907D10168496812049143426B114373
:10335000026851600822816A1140082907D101687A
:10336000496812039143826B114302685160102235
:10337000816A1140102907D10168896812029143BE
:10338000C26B1143026891602022816A114020299A
:1033900007D10168896812029143026C11430268E7
:1033A00091604022816A1140402915D10168496825
:1033B00092039143426C114302685160012212054D
:1033C000416C914208D1016849680322520591433A
:1033D000826C1143026851608022816A1140802909
:1033E00007D10168496812039143C26C1143026816
:1033F0005160704738B5044600218C200151FDF71B
:10340000BDFE0546206800680821084008280BD149
:1034100015482B46002289040090204600F064F9EC
:10342000002801D0032038BD20680068042108402E
:1034300004280BD10C482B46002209050090204699
:1034400000F052F9002801D00320ECE7202184206D
:103450000151882001510020E06600BF002180203A
:10346000015500BF0020DEE7FFFFFF01F0B585B08A
:103470000446002001902169A0680843616908435F
:10348000E16908430390206800688B49084003996C
:1034900008432168086020684068032109038843C5
:1034A000E168084321684860A0690390206A039995
:1034B00008430390206880688049084003990843C6
:1034C000216888602068C06A00090001616A0843B9
:1034D0002168C86200BF7A492068884217D17948BC
:1034E00040698007800F002806D0012808D00228F4
:1034F00004D0032808D105E0002507E0022505E0F7
:10350000042503E0082501E0102500BF4AE06E49CC
:103510002068884217D16B4840690C210840002878
:1035200006D0042808D0082804D00C2808D105E0CB
:10353000002507E0022505E0042503E0082501E059
:10354000102500BF2EE061492068884217D15D48F0
:10355000406930210840002806D0102808D02028D3
:1035600004D0302808D105E0002507E0022505E059
:10357000042503E0082501E0102500BF12E05449AE
:103580002068884201D100250CE052492068884219
:1035900001D1002506E050492068884201D100256C
:1035A00000E0102500BF0121C903E069884241D134
:1035B000002D06D0022D08D0042D08D0082D0DD1E5
:1035C00009E0FDF7AFFF06460CE0444E0AE0FDF7C8
:1035D000BDFF064606E00126F60303E000260120B3
:1035E000019000BF00BF002E5AD0606A40003C4AE4
:1035F000115A3046FCF77AFD4000616849084018CE
:1036000000906168FCF772FD87B2102F0FD3354828
:1036100087420CD833480F38384002903807400FA3
:1036200002990843029002982168C86038E001209E
:10363000019035E0002D06D0022D08D0042D08D0D1
:10364000082D0DD109E0FDF76DFF06460CE0234E75
:103650000AE0FDF77BFF064606E00126F60303E0DD
:1036600000260120019000BF00BF002E18D0606A24
:1036700040001B4A115A3046FCF738FD6168490882
:10368000401800906168FCF731FD87B2102F05D318
:103690001448874202D82068C76001E001200190E9
:1036A00001216A20015368200153002020676067D0
:1036B000019805B0F0BD0000F369FFCFFFF4FF11E2
:1036C00000380140401002400044004000480040E3
:1036D000004C004000500040003C01400024F40039
:1036E0005CBA0008FFFF0000FFB581B004460D463C
:1036F00017460A9E7BE0701C002878D0FDF73EFD3F
:103700000499401AB04201D8002E2FD100BF00F01A
:103710001FF90090012000F05EFC20680068FF2186
:10372000A131884321680860009800F054FC00BF74
:1037300000BF00F00DF90090012000F04CFC206863
:1037400080684008400021688860009800F043FCD1
:1037500000BF2021842001518820015100BF002199
:103760008020015500BF032005B0F0BD206800682F
:103770000421084000283AD02068C0694902084066
:10378000C00A002833D008462168086200BF00F054
:10379000DFF80090012000F01EFC20680068FF2187
:1037A000A131884321680860009800F014FC00BF34
:1037B00000BF00F0CDF80090012000F00CFC206864
:1037C00080684008400021688860009800F003FC91
:1037D00000BF202184200151882001518C200151FB
:1037E00000BF00218020015500BF0320BCE72068F6
:1037F000C0692840A84201D1012000E00020B84261
:1038000000D178E70020AFE710B503F0CBF910BD89
:103810000FB410B503A9044B044A029800F0E6FB6C
:1038200010BC08BC04B01847214A00083000002032
:103830002021020C01D010211046020A01D01046AE
:103840000839020901D01046091F820801D010462C
:10385000891E420801D0881E7047081A7047F0B4CC
:10386000040C8BB2264682B25E430D0C1046370C18
:103870005843360480190021794116466E43370CAF
:1038800036048019794126466E438919F0BC704789
:1038900030B47446641E2578641CAB4204D3635D67
:1038A0005B00E31830BC18471D46F8E74900CA0220
:1038B0000243100000D004204A0D01D00122104321
:1038C000044A490D914201D102210843012800D147
:1038D00005207047FF07000010B5002819DB1A4AC1
:1038E00003231B02D21883089B00D2588307DC0EE7
:1038F000FF23A3409A438B071B0E8407E40EA340CB
:103900001A43114B032424021B198408A4001A51E2
:1039100018E00E4A03071B0F083B9B089B00D25878
:103920008307DC0EFF23A3409A438B071B0E8407FB
:10393000E40EA3401A43054B0407240F083CA408D7
:10394000A4001A5110BD000000E100E01CED00E0F1
:10395000EFF3108070470000F7B596B014460021D1
:10396000A160D160179909914D00CD496D088D4234
:1039700005DC179961602060002019B0F0BDC949CD
:10398000C94E8D4238DAD32709997F050029C74AE5
:103990001799334617DDFCF77EFDB54206D0C44AC1
:1039A000C44BFCF778FD6160206009E03A46C14BEA
:1039B000FCF771FDC04AC14BFCF76DFD61602060F2
:1039C000012019B0F0BDFCF7C1FCB54206D0B84AE1
:1039D000B84BFCF7BBFC6160206009E03A46B54B90
:1039E000FCF7B4FCB44AB54BFCF7B0FC6160206056
:1039F0000020C04319B0F0BDB1498D42179977DC62
:103A0000490049080746AF4AAF4B0491FCF752FD05
:103A10000022AE4BFCF79AFCFCF77AFE0A90FDF709
:103A200039F9A24A334603910290FCF743FD3A4626
:103A3000049BFCF736FD06460F469D4A9D4B0399B5
:103A40000298FCF737FD2A0D01250C9232463B46C1
:103A5000FCF727FD61602060032D39D04800410D3F
:103A60000C98401A690169181139814230DA984975
:103A70002801794408960D90081804974368026855
:103A800003990298FCF716FD02460B460791069033
:103A900004990898FCF7FFFC06460F46049B089A19
:103AA000FCF7FFFC079B069AFCF7F5FC059189499A
:103AB000049079440D984018C3688268039902986D
:103AC000FCF7F8FC059B049AFCF7E5FC6D1CBDE7D0
:103AD0000998002809DA01226068D2075040606026
:103AE0000A9819B04042F0BD02E00A9819B0F0BD42
:103AF00009030122090B12050E90891817981091DD
:103B000040007549400D40184111C006C00E0D918E
:103B100013902021081A1490002006900525079084
:103B2000139800280D980CD0401982006B487844F7
:103B3000875813998F40101841681498C1400F435B
:103B400004E0401981006648784447581099384687
:103B5000FFF785FE06460A9138460E99FFF77FFE6D
:103B60008A190A9B8A4201D2012100E00021C9186A
:103B70008C46AF00694679188B684E68C31883423B
:103B800001D2012000E0002096193618002802D04A
:103B9000964202D903E0964201D2012000E00020C3
:103BA000624612184E6068468B60C25128466D1EF0
:103BB0000028B5DC0121029849074018800F1390B6
:103BC000029805998000039E049D0B91FDF762F811
:103BD000074630460891FCF75FFD1D22D243FDF7F2
:103BE00043F810900F912846FCF756FD3D22D24332
:103BF000FDF73AF80E900D910B98FCF74DFD5D2204
:103C0000D243FDF731F80B910C900D9B0E9AFCF707
:103C10009DFB0F9B109AFCF799FB3A46089BFCF71B
:103C200095FB00250E463A462846089BFCF733FCD8
:103C30000F9B109AFCF72FFC0D9B0E9AFCF72BFCA8
:103C40000B9B0C9AFCF72DFC264A274BFCF732FC09
:103C500007460D91254A264B31462846FCF72AFC9B
:103C60003A460D9BFCF772FB0F4615220C9092060C
:103C70001D4B31462846FCF71DFC3B460C9AFCF7D1
:103C800065FB179A002A05DA139A52421392012211
:103C9000D207514061602060139819B0F0BD000058
:103CA000FB21E93F7CD90240FB21F93F0000405451
:103CB0003163621A61B4D03D7370032E8A19A33B3D
:103CC000FB21394183C8C96D305FE43F0000E03F0C
:103CD00052810000128100000BFCFFFFC680000033
:103CE000AC800000182D4454FB21F93D3326A61169
:103CF000460B113CF0B51FB44E00F9207608800544
:103D000084B00F46864204DA0498FCF701FD0028CF
:103D100038D0049A3B4610461946FCF7CBFB0446C4
:103D200002462C480D460B460621784400F05CF80C
:103D300022462B46FCF7BEFB019100903946079BBB
:103D4000069A0498FCF7B6FB0746029120462946DE
:103D5000019B009AFCF7AEFB3A46029BFCF79BFBEB
:103D6000074600220091D24320462946FCF77CFFFB
:103D7000194A96420ADA3A46009BFCF78CFB00226D
:103D8000164B23E00020154909B0F0BD144A9642B5
:103D900002DD0024134D03E001225205B51A002470
:103DA00022462B46FCF777FB0646019122462B461E
:103DB00000200A49FCF76FFB0D4604463A463046A0
:103DC000009B0199FCF767FB22462B46FCF769FB39
:103DD00009B0F0BD627E00003333D33F0000F03FF6
:103DE0000000E93F0000D23FF8B504464F1EC8006E
:103DF0000838211815461E46086849683A460623C1
:103E00009A4310D02A463346FCF754FB3A46D20078
:103E1000083AA3181A687F1E5B68FCF797FA062217
:103E20003B469343EED1022F23D0042F11D0062F0F
:103E30002FD12A463346FCF73DFBE36AA26AFCF722
:103E400085FA2A463346FCF735FB636A226AFCF79B
:103E50007DFA2A463346FCF72DFBE369A269FCF79D
:103E600075FA2A463346FCF725FB63692269FCF79D
:103E70006DFA2A463346FCF71DFBE368A268FCF79F
:103E800065FA2A463346FCF715FB63682268FCF79F
:103E90005DFAF8BDF0B51FB4054648000C46F9219F
:103EA0004008890586B088420BDA28462146FFF78C
:103EB000FDFC042801D100F075F8284621460BB01E
:103EC000F0BD2A46234610461946FCF7F3FA06468B
:103ED0000F462A462346FCF7EDFA0090254801914B
:103EE00032463B4605217844FFF77EFF029010984A
:103EF0000391002829D0204A204B01990098FCF713
:103F0000D9FA0490059168460FC8FCF7D3FA00224D
:103F100001910090D24309990898FCF7A5FE019BF6
:103F2000009AFCF7B8FA32463B46FCF7C3FA099B05
:103F3000089AFCF7B0FA059B049AFCF7ACFA2A46FB
:103F40002346FCF7AEFA0BB0F0BD0B4630463946BF
:103F5000029AFCF7AFFA084A084BFCF7F7F9019B05
:103F6000009AFCF7A7FA2A462346FCF7EFF90BB0B4
:103F7000F0BD0000A67D0000495555555555C5BFFB
:103F800010B50122FCF770FE10BD10B5FCF7DEF98C
:103F900010BD002210B5134610461146FCF7F2FA88
:103FA00010BD0000034A10B500201107FCF75CFEAD
:103FB00010BD000001FDFFFF02E008C8121F08C18C
:103FC000002AFAD170477047002001E001C1121F9A
:103FD000002AFBD1704780F31088704701490860C0
:103FE000704700003400002070470000FFB58FB01C
:103FF0000F460446002606E025280AD0129A119999
:104000009047641C761C20780028F5D1304613B008
:10401000F0BD002501219F4A009500E00543641C86
:1040200023780846203B98401042F7D120782E286C
:1040300015D1042005436078641C2A280AD101CFD9
:10404000641C00900BE000990A225143303940185B
:10405000641C00902078014630390929F3D9207872
:104060006C280ED004DC4C2813D06A2812D104E04E
:1040700074280ED07A280DD10BE0012040050543AD
:1040800007E00121090562780D43824201D16D18D4
:10409000641C641C2078692849D008DC0028B5D04D
:1040A00058286CD063280FD0642808D13FE07028CE
:1040B0006AD0732811D075285FD078285FD0129A03
:1040C00011999047761CE3E0387869460872002021
:1040D000487202A80190012003E038680190002096
:1040E000C0433F1D69070CD5002500E06D1C0099F9
:1040F0008D420FDA8542F9DB0199495D0029F5D13E
:1041000008E0002500E06D1C8542FCDB0199495D5B
:104110000029F8D1761907E0019801990078491C27
:104120000191129A119990476D1EF5D2B0E00A20C4
:10413000029000216802400F039102280CD001CFA9
:10414000C117844600290DDA60460A464042002124
:10415000914184462D2008E0FF1DFF08FF0003CF9A
:104160008446EFE7280504D52B206A461074012009
:104170003DE0E8073BD02020F7E70A2000E01020D0
:1041800000210391029007E01020029000210420FA
:1041900005430820039100906802400F022811D0C7
:1041A00001CF0021844600200D90280720D52078DB
:1041B000864670280CD0029A1020039B42401A4376
:1041C0000CD015E0FF1DFF08FF0003CF8446EAE78F
:1041D00040206A46107401200D900CE060460843B0
:1041E00006D030206A4610747046507402200D903C
:1041F0002078582804D028A001900DA80E900DE03A
:104200002AA0F9E76046039B029AFCF72FFB019B6B
:1042100084469B5C0E9A521E0E92137060460843B1
:10422000F0D10E9805A9081A20300190680701D432
:104230000120009000990198814201DD081A00E0F8
:1042400000200025009006E004A8129A405D119914
:1042500090476D1C761C0D988542F5DB04E0129AA0
:10426000302011999047761C0099481E0090002933
:10427000F5DC08E00E980E990078491C0E91129A10
:1042800011999047761C0199481E01900029F1DC94
:10429000641CB8E609280100303132333435363732
:1042A0003839616263646566000000003031323382
:1042B0003435363738394142434445460000000022
:1042C000F0B589B004460D46480006917249400891
:1042D000884215DB7149884203DC884207D1002CF3
:1042E00005D020462946FFF74BFE09B0F0BD6C48CB
:1042F000002D02DD6B4909B0F0BD6B4909B0F0BD7E
:104300006A49884211DA6A4988420BDA204629460E
:10431000FFF7CCFA042801D1FFF744FE20462946D6
:1043200009B0F0BD0026F6435DE06D0061496D08FF
:10433000884232DA6049884219DA0026012332467F
:104340009B0720462946FCF701F807460191012208
:1043500020462946FCF788FC0022584BFCF79BF8C6
:104360003A46019BFCF70EF904460D463BE0012658
:104370000022524B20462946FBF7E8FF07460091F2
:1043800000224E4B20462946FCF785F83A46009B12
:10439000FCF7F8F804460D4625E04949884219DA49
:1043A00002260022474B20462946FCF783F80022CC
:1043B000424BFBF7CBFF074602910022414B2046C0
:1043C0002946FCF768F83A46029BFCF7DBF80446FE
:1043D0000D4608E0032622462B4600203A49FCF70A
:1043E000D1F804460D4622462B4610461946FCF7E6
:1043F00061F807460B4602460191FCF75BF802465E
:10440000029032480B46039106217844FFF7ECFCFA
:104410003A46019BFCF74EF800902D48019105218A
:104420007844039B029AFFF7DFFC039B029AFCF798
:1044300041F802460B4601990098002E0BDAFBF773
:1044400085FF22462B46FCF735F822462B46FCF723
:1044500028F809B0F0BDFBF779FF22462B46FCF7A0
:1044600029F81C4AF6007A4493191A685B68FCF72D
:1044700012F822462B46FCF70EF8174A7A44931995
:104480001A685B68FCF70DF8069A002AE1DA012247
:10449000D207514009B0F0BD000010440000F07F89
:1044A000182D4454FB21F93FFB21F9BF0000DC3FEC
:1044B0000000203E0000F33F0000E63F0000F03F18
:1044C000008003400000F83F0000F0BF527700007A
:1044D00014770000AE76000078760000F0B51FB4C7
:1044E000039A029D53006E422E439446F40F5B08DC
:1044F0004A00574E52081C438E46B44205D84742E4
:104500000743FC0F1443B44205D92A466346FFF71C
:104510003CFD05B0F0BD4F4E66442E430AD0CC0F93
:104520006646B61702273E40264304464A4F1443C8
:1045300004D00BE0FFF7C4FE05B0F0BD002EFBD0A9
:10454000012EF9D0022E32D0032E34D01C462C433B
:104550000BD03F4CA34216D1A2420AD101218907B8
:104560008B438A43114603930DE0704600280FDB0E
:1045700025E03A4D7D44002E0ED0012E10D0022EA3
:1045800015D0032E17D0A2421DD17046002816DA8E
:104590003148334905B0F0BD6968286805B0F0BD01
:1045A00001226968D2072868514005B0F0BD38463D
:1045B0002C4905B0F0BD38462B4905B0F0BD264862
:1045C0002A4905B0F0BDD21A12153C2A02DD224D4F
:1045D000264C12E06346002B05DA3C23DA4202DA6D
:1045E00000252C4609E0039B029AFBF7CBFF49000C
:1045F0004908FFF765FE05460C46002E12D0012E35
:104600000DD01B4A1B4B022E2846214618D0FBF723
:1046100042FF3A46134BFBF73EFF05B0F0BD0120C9
:10462000C00744400022134628462146FCF7C6F83E
:1046300002D10220FFF7D2FC2846214605B0F0BD8A
:10464000FBF729FF3A46074BFBF72BFF05B0F0BD00
:104650000000F07F000010C0182D44544876000080
:10466000FB21F9BFFB210940FB2109C0FB21F93FD8
:10467000075C143326A6A13CF8B54A002B4B520D1B
:10468000D6182B4A0C460546142E2BDA002E12DAC9
:10469000284BFBF75BFE00221346FCF7A3F840D241
:1046A000002C03DA0124E40700253AE020462843E1
:1046B00037D0214C14E0214F0B46F7403B402B43B1
:1046C00031D01C4BFBF742FE00221346FCF78AF860
:1046D00027D2002C03DD01200005F0400419BC4363
:1046E00000251EE0332E1EDC33460027143BFF431B
:1046F000DF40384217D00F4BFBF7D3FE00221346A2
:10470000FCF770F80DD2002C0ADD142E0CD03420EA
:10471000811B012088404019A84200D2641C054634
:10472000BD4321462846F8BD641CF9E701FCFFFFA4
:104730009C7500883CE4377E0000F03FFFFF0F00CF
:10474000F0B585B005460027002417E0A1006858A1
:10475000FCF720F80022134603910290FCF72EF894
:104760000AD0A200A958A200A858FBF773FD394649
:104770000390FBF716FD0746601CC4B2032CE5DB73
:104780003846FCF707F80191009005F07FFE039191
:104790000290FCF73BF807463846FBF7FBFF024662
:1047A0000B460191009000200B49FBF7EBFE0391B3
:1047B0000290FCF72BF80646002408E0A100685898
:1047C0003146FBF747FDA1006850601CC4B2032CC2
:1047D000F4DB384605B0F0BD0000F03F0020704724
:1047E0007047000004494978002900D07047002133
:1047F000014AD17200BFF9E73C0D0020704700006C
:1048000010B5044605480078022800D110BD03F019
:1048100057FD2046FFF7E6FF00BFF7E73C0D0020FD
:1048200000B54A00224B520887B09A4202DC0022AF
:10483000134625E01F4B9A4208D1002808D10120D9
:10484000FFF7CCFBFFF7A5FB07B000BD9A4203DBE7
:10485000FFF796FB07B000BD02AAFFF77DF88107BE
:10486000890F0BD0012001290ED0022916D000900B
:1048700002A80FC8FFF70EFB07B000BD02A80FC8C3
:10488000FFF738FA07B000BD009002A80FC8FFF785
:1048900001FB0122D207514007B000BD02A80FC89A
:1048A000FFF728FA0122D207514007B000BD0000EF
:1048B000FB21E93F0000F07F10B5044602E0012033
:1048C000FFF792FB2046611E8CB20028F7D110BD85
:1048D000F0B585B007460C4617493846FBF7BAFCD9
:1048E0000190FBF757FF03910290FFF7C5FE0546C5
:1048F000FBF732FF80B2049016E0104840780028A1
:1049000001D005B0F0BD002C02D104F095F808E00C
:1049100003F016FE0948807802210840002800D0E4
:10492000EFE73220FFF760FB0498411E89B2049143
:104930000028E2DC00BFE4E70000A0413C0D0020BD
:1049400010B50446204601F09DFC10BD014A1154EB
:1049500070470000C8010020F8B54A002B4B520DEB
:10496000D6182B4A0C460546142E2BDA002E12DAE6
:10497000284BFBF7EBFC00221346FBF733FF40D23A
:10498000002C02DB002425463BE060004008284361
:1049900037D0214C14E0214F0B46F7403B402B43CE
:1049A00031D01C4BFBF7D2FC00221346FBF71AFF59
:1049B00027D2002C03DA01200005F0400419BC4383
:1049C00000251EE0332E1EDC33460027143BFF4338
:1049D000DF40384217D00F4BFBF763FD0022134630
:1049E000FBF700FF0DD2002C0ADA142E0CD0342075
:1049F000811B012088404019A84200D2641C054652
:104A0000BD4321462846F8BD641CF9E701FCFFFFC1
:104A10009C7500883CE4377E0000F0BFFFFF0F006C
:104A200038B504460D4600947D23DB00012269461B
:104A30000248FDF787FF204638BD000054000020E3
:104A400001B5AEB04021F748FBF793FB0B22F649C6
:104A5000F448401CFBF774FB00202C9000212891A7
:104A6000279126912591249123912E98007824282E
:104A700009D101212398084323900120E949487076
:104A80000021E848817000201E9000211D9123988C
:104A9000C007C00F002802D00320219001E00020B1
:104AA0002190AAE220A909792E98405C20902098B4
:104AB000412802DB20985A2802DD01202FB000BDDA
:104AC00020A80079401CC1B221911FAA21A92E98CB
:104AD00004F076F8002801D10220EFE71F98FBF7D9
:104AE00059FE1191109006F0B1FE13911290FBF750
:104AF00033FEC0B21E901E98FBF7C7FD0D901F99A4
:104B0000FBF7A4FBC9490E90FBF7A4FB0F90FBF742
:104B100041FE1191109004F0AFFE13911290FBF73B
:104B20001BFE80B21D902098472802D04D2875D1D9
:104B300036E11E982B2872D024DC122870D010DCAD
:104B4000032875D006DC00286FD001286ED002281B
:104B50006AD16CE0042841D00A2831D01128F7D15D
:104B600099E01C282DD006DC13287DD014287CD099
:104B70001528EDD1BDE01E2824D0262859D028289C
:104B8000E6D1BFE03B2871D009DC31380300FEF7E5
:104B90007FFE0ABDEEEEEE26D9DADBDCDDEE5B2829
:104BA00076D006DC3D2874D050284AD05A28CFD180
:104BB0007BE05C2807D05D286CD05E28C8D18EE0F1
:104BC00000BF00BF00BF1D98002806D12C98002808
:104BD00001D0182072E701202C9000BF00BF0021F7
:104BE000229190491E9808701E981C2805D01E9886
:104BF0001E2802D01E985C280FD11D98002804D0D2
:104C00001D980A2801D0142058E7864801781D987D
:104C100008188449087000211D91AAE03CE174E065
:104C20003AE005E001E001E0A1E000BF00BF00BF05
:104C300000BF2C98002801D018203FE702202C90BC
:104C400000BF0121229177491E9848701E9826289E
:104C50001DD11D9814280ED01D981E280BD01D980C
:104C6000282808D01D9802E017E041E06FE03228C4
:104C700001D0142022E70A211D98FBF74DFA643079
:104C80006849497840186749487000211D9170E0D3
:104C90000CE064E022E000BF00BF022122911E98D8
:104CA0001138C1B25F48417163E000BF1D98002810
:104CB00007D1032122911E985A38C1B25948017177
:104CC0000BE0042122911D980A2802D11E985A282F
:104CD00001D11420F2E600201D904AE000BF05211A
:104CE00022915E211E98081AC1B24E48817040E0A0
:104CF00000BF0621229115211E98081AC1B2494809
:104D0000C17036E00720229033E000BF08212291D5
:104D10002C98002801D01820D0E603212C911E9851
:104D2000312803D100213F48817108E01D980A28ED
:104D300003D101213B48817101E01420BEE600202F
:104D40001D9016E000BF00BF00BF00BF00BF0921DB
:104D500022911E983638C1B23248C17109E00A2149
:104D600022911D98002801D01420A7E601E014200C
:104D7000A4E600BF1D98002801DD17209EE6012053
:104D80002299884025990840002801D0152095E6F1
:104D90000120229988402599084380B225902BE173
:104DA0001D98002801DD172088E61E98042829D0C8
:104DB00008DC00280FD001280ED002280DD00328CF
:104DC00056D11EE005281ED008283BD009283AD02D
:104DD0001E284DD102E000BF00BF00BF0B21229171
:104DE0001E98002802D0012805D103E003210D48B8
:104DF000017204E003E00B491E98087200BF00BF77
:104E000038E000BF00BF0C2122911E98032804D077
:104E100004280DD0052813D10EE01021014881721D
:104E20000EE00000D4060020900600200000C842DA
:104E30002021F748817203E00021F548817200BF0C
:104E400000BF17E000BF0D2122911E98082802D054
:104E500009280BD106E0EE48407A40210843EC498E
:104E6000487203E00021EA48417200BF00BF01E040
:104E7000142023E600BF012022998840259908408C
:104E8000002801D0152019E6012022998840259993
:104E9000084380B22590AFE0209846380300FEF723
:104EA000F7FC150C8484121C263084368446844C0E
:104EB000525884848466707A840000212291D449F7
:104EC0001F98C86073E001212291D1481F990161A8
:104ED000012126980143269169E002212291CC48C4
:104EE0001F99416102212698084326905FE0032123
:104EF0002291C7481F998161042126980843269072
:104F000055E004212291C2491E9808774FE0052000
:104F100022901F98FBF73EFC1191109006F096FC32
:104F200013911290FBF7F4FBB94908623FE00621A8
:104F30002291B7481F99416239E007212291B44874
:104F40001F99816233E008212291B1481F99C16203
:104F50002DE009212291AF491F98FBF77DFC01D27A
:104F60002620ABE5AA482C301E9901711FE00A21CA
:104F70002291A7481F994163012127980843279050
:104F800015E00B212291A2481F99816302212798E5
:104F9000084327900BE00C2122919D481F99C16383
:104FA000042127980843279001E0142086E500BFDC
:104FB00001202299884024990840002801D0192016
:104FC0007CE50120229988409349084000280BD0B5
:104FD0001F98FBF7DFFB0022134613911290FBF79B
:104FE000EDFB01D2042069E5012022998840249933
:104FF000084380B2249000BF00BF20A909792E98F1
:10500000405C002800D04DE52798002804D02C985B
:10501000002801D102202C9020212498084000284B
:1050200006D07B48006A7D49884201DD1B2045E5AA
:105030002398C007C00F00281CD02498C007C00FB9
:10504000002801D1162039E57148C07801284AD1DD
:105050006F48C0680F90FBF79DFB714A714B11912F
:105060001090FBF727FA13911290FBF7CFFB6849DA
:10507000C86038E066488078012811D12C98022851
:1050800031D16348407850282DD0614840780028BD
:1050900029D02498C007C00F002824D116200DE580
:1050A0006148407800281ED12498C007C00F00280E
:1050B00015D05748C078012815D15548C0680F90C1
:1050C000FBF768FB564A574B11911090FBF7F2F92A
:1050D00013911290FBF79AFB4D49C86003E05248C8
:1050E00000694B49C860FF2101312498084000281D
:1050F00003D14D48C1684648C1624548007804283C
:105100000AD1402124980840002801D11C20D5E470
:1051100040212498884324903D484079002802D0BB
:1051200001280ED106E000202B9001212A910220B7
:1051300029900DE002202B9000212A910120299036
:1051400006E001202B9002212A910020299000BF27
:1051500000BF2F48C078012829D100201C9023E0EF
:1051600001201C99884027990840002818D01C98D5
:10517000810027483430415808460F91FBF70AFB5D
:10518000274A284B11911090FBF794F91391129034
:10519000FBF73CFB01461C9882001D4834308150CF
:1051A0001C98401CC1B21C911C980328D8DB2C9879
:1051B00003280AD116488079012806D104212798AE
:1051C0004840002801D0252078E41748836A026B04
:1051D000C16A19931B921A9101214902259808402E
:1051E000002823D00A48C079062801DD1D2065E487
:1051F0000D4881790648C079814217D00448C079AA
:1052000019A9149004F01EFE00280FD1072055E4C0
:10521000D406002000007F436103000080969800C0
:10522000666666666666394090060020FA48007831
:105230000A2802D05C287DD1A2E02798002801D15D
:105240001A203BE4502124980840002801D11C205A
:1052500034E4F148406A0F90FBF79CFA11911090EA
:1052600006F0F4FA13911290FBF776FAC0B2289088
:105270002898062801DD1D2020E4E748007F142837
:105280000CD0E548007F022806D1802124980840F0
:10529000002803D0142011E414200FE45022249994
:1052A000914324912898002804DD2898401EC1B21B
:1052B000289102E0D848C1792891D749103128981F
:1052C00004F0C0FD002801D1072006E400211C9154
:1052D00052E001201C99884027990840002847D0B7
:1052E000CD48007F142839D11C988100CB48415803
:1052F00013911C988100C94818384158129113998C
:105300001298FAF79FFF14901C988100C24834301D
:105310004058014613901498FAF794FF01461C98E0
:105320008200BD48103081501C98022820D1BB4813
:10533000343800E07BE0016C14911C988100B64881
:1053400010304158139114991398FAF77BFF0146D6
:105350001C988200B0481030815009E01C988100F0
:10536000AD48343041581C988200AB481030815011
:105370001C98401CC1B21C911C980328A9DB27E192
:105380002798002801D11A2024E400201C904AE02C
:1053900001201C99884027990840002836D01C9885
:1053A000800019A9095813911C9881009B4818384E
:1053B0004158129113991298FAF744FF14901C98CF
:1053C000810095483430415813911498FAF73AFF08
:1053D00001461C9882009048343081501C98022865
:1053E0001DD18E483438006C14901C9881008A4876
:1053F00034304158139114991398FAF723FF01465A
:105400001C98820084483430815008E01C98810048
:10541000824841581C9882007F48343081501C9843
:10542000401CC1B21C911C980328B1DBD0E02C9821
:10543000032873D02798002870D000201C906AE0C1
:1054400001201C9988402799084000280AD11C98FF
:1054500081007248183841581C9882006E483430D8
:10546000815054E06C480078352850D06A48007963
:10547000002836D11C9881006848415813911C9827
:10548000800019A90958129113991298FAF789FE08
:1054900014901C98810060483430405801461390A5
:1054A0001498FAF77EFE01461C9882005A48343060
:1054B00081501C9802282AD158483438006C149026
:1054C0001C98810054483430415813911499139812
:1054D000FAF767FE01461C9882004F48343081502D
:1054E00015E01C9881004D481838415814911C98BB
:1054F0008100494834304158139114991398FAF7B0
:1055000050FE01461C9882004348343081501C985C
:10551000401CC1B21C911C98032891DB3E480078C6
:10552000282846D006DC1C2809D01E2808D02628AA
:105530004CD13DE035283ED0662847D13AE000BF47
:10554000354800781C2808D133491031062004F072
:1055500079FC00280AD1072007E42F4910310720E1
:1055600004F070FC002801D1072007E427980028E8
:105570001BD000201C9014E001201C998840279922
:105580000840002809D11C98810024481838415847
:105590001C9882002048103081501C98401CC1B2D9
:1055A0001C911C980328E7DB01E000202C900DE003
:1055B00000BF0BE00AE018484078002805D01648E4
:1055C0004078012801D01E2053E400BF00BF00BF77
:1055D00000BF11484078502804D1279800280CD0EB
:1055E0001F2046E42C98022807D10B484078002859
:1055F00004D127980028F7D12C9020E20648C068F3
:105600001190FBF7C7F80022134613911290FBF795
:10561000D5F805D116202CE4D4060020C4060020BD
:10562000F74840788C287CD006DC01280BD0022873
:105630000ED003280BD110E08D2873D08E2872D0A5
:105640008F28F7D1C4E12798002800D12C90F5E1EC
:10565000042123980843239000BF2798002801D1F4
:105660001A2006E401202B99884001222A998A40B9
:10567000104327990840002801D1202071E42B987D
:105680008100E048415812912B988100DC48343069
:105690004158119112991198FAF7D4FD14902A9853
:1056A0008100D848405812902A988100D44834305C
:1056B000405811901299FAF7C5FD13908021249853
:1056C000084000287ED02498884324900C22CC499E
:1056D0003431CC48FAF758FD002801D1212040E4AC
:1056E000C748C078012810D1C548806A0D90FBF7E3
:1056F00051F8C54AC54B0F910E90FAF7DBFE119198
:105700001090FBF783F8BE49886213990846FAF7B0
:10571000A1FD0B90FBF73EF80F910E9014990846EF
:1057200002E05AE153E159E1FAF794FD0790FBF7E3
:1057300031F80B910A90B248806A0390FBF72AF87F
:1057400007910690AE48806A0190FBF723F800228B
:10575000AF4B03910290FAF7ADFE05910490079BC1
:10576000069AFAF7A7FE099108900B9B0A9AFAF796
:1057700092FE0D910C900F9B0E9AFAF78CFE1191F0
:105780001090FBF743F8129000211298FBF75AF89B
:1057900001D222200AE41399149801F0B3F90B9076
:1057A000FAF7F8FF0F910E901298FAF7F3FF0B91AA
:1057B0000A9004F06BFE0122D20751400D910C902B
:1057C0000F9B00E058E00E9AFAF7DCFE1191109062
:1057D000FBF71CF812908A484078032804D1012175
:1057E000C9071298484012908548806A002111909C
:1057F000FBF728F809D20121C907129848401290F6
:105800007F48806A48407E49886212991398FAF767
:1058100021FD0C901499FAF719FD0D90FAF7BAFFD3
:1058200000227C4B0F910E90FAF744FE11911090DC
:10583000FAF7ECFF02462B98810071481030425075
:1058400012991498FAF706FD0C901399FAF7A9FC2F
:105850000D90FAF79FFF00226E4B0F910E90FAF712
:1058600029FE11911090FAF7D1FF01462A98820083
:10587000634810308150A9E001202B998840012213
:105880002A998A40104326990840002801D12320F4
:1058900005E40E212498884324905948C0780128B3
:1058A00029D100211C9123E001201C9988402699D0
:1058B0000840002818D01C988100514810304158E9
:1058C00008460B91FAF766FF4F4A504B0D910C902A
:1058D000FAF7F0FD0F910E90FAF798FF01461C9829
:1058E00082004748103081501C98401CC1B21C9166
:1058F0001C980328D8DB2B98810041481030415870
:1059000010911498FAF79EFC14902A9881003C4854
:105910001030415810911398FAF794FC1390139992
:10592000149801F0EFF812902A9881003448103052
:10593000405810902B9881003148103041580F91F9
:1059400010990F9801F0DEF82D4988620846816AA7
:105950000C911298FAF776FC0D90FAF71BFF4900AC
:1059600049080F910E90FAF751FF11901198FAF72C
:1059700011FF294A294B0F910E90FAF733FF24D2D9
:105980001198FAF707FF0022224B0F910E90FAF7B9
:1059900029FF01D2212017E41948806A0990FAF7FB
:1059A000F9FE1F4A1F4B0B910A90FAF783FD0F91E6
:1059B0000E901198FAF7EEFE0D910C900F9B0E9A37
:1059C000FAF710FF01D2212011E400BF36E000BF3A
:1059D000102123980843239000BF00BF0848407857
:1059E0008E2803D0064840788F2803D108212398B9
:1059F000084323902798002816D11A2007E40000B6
:105A0000D4060020AC0600206666666666663940ED
:105A1000000010400000E03F7B14AE47E17A743F85
:105A2000FCA9F1D24D62503F0C22FA49FA48FAF72C
:105A3000ABFB002801D121200AE400BF00BF23985E
:105A4000C007C00F002804D0212124988843249047
:105A500003E0F2492498084024902C98002804D0B0
:105A6000072189022498884324902498002801D093
:105A7000242010E416A815900021159801604160BB
:105A800081602398C007C00F002833D04921259892
:105A90008843002801D0102017E4DE48343800780D
:105AA000352806D0DB4834380078002801D0102093
:105AB0000BE4D9481C38C16815984160D6481C3899
:105AC000417A007A014318A80170D249343916A8E6
:105AD00001F036F814901498002809D1CE491C39E9
