:020000040800F2
:1000000008D4002085020008952400080524000873
:1000100091240008670B0008D92B0008000000009D
:10002000000000000000000000000000C501000802
:100030006B0B00080000000021020008E525000805
:100040009F0200089F0200089F0200089F0200080C
:100050009F0200089F0200086D0B00089F02000825
:100060009F0200089F0200089F0200089F020008EC
:100070009F0200089F0200089F0200089F020008DC
:100080009F0200089F0200089F0200089F020008CC
:100090009F0200089F0200089F0200089F020008BC
:1000A0009F0200089F0200089F0200089F020008AC
:1000B0009F020008ED260008FD2600089F020008A8
:1000C0009F0200089F0200089F0200089F0200088C
:1000D0009F0200088D2A00089F0200089F02000866
:1000E0009F0200089F0200089F0200089F0200086C
:1000F0009F0200089F0200089F0200089F0200085C
:100100009F0200089F0200089F0200089F0200084B
:100110009F0200089F0200080D2700089F020008A8
:100120009F0200089F0200089F0200089F0200082B
:100130009F0200089F0200089F0200089F0200081B
:100140009F0200089F0200089F0200089F0200080B
:100150009F0200089F0200089F0200089F020008FB
:100160009F0200089F0200089F0200089F020008EB
:100170009F0200089F0200089F0200080000000084
:100180009F0200089F0200089F0200089F020008CB
:100190009F0200089F0200089F0200089F020008BB
:1001A0009F0200089F0200089F020008DFF810D09D
:1001B00000F0B6FC00480047D56E0008AFF30080A1
:1001C00008D400202C4B19680868B0E8F04F80F381
:1001D0000988BFF36F8F4FF0000080F311887047DC
:1001E0000000000008480068006880F308884FF0AD
:1001F000000080F3148862B661B6BFF34F8FBFF37F
:100200006F8F00DF00BF00BF08ED00E0DFF80C00DB
:10021000016841F470010160704700BF88ED00E0A3
:10022000EFF30980BFF36F8F134B1A681EF0100FA6
:1002300008BF20ED108A20E9F04F106009B44FF09C
:10024000400080F31188BFF34F8FBFF36F8F0CF026
:100250005DFA4FF0000080F3118809BC1968086846
:10026000B0E8F04F1EF0100F08BFB0EC108A80F31A
:100270000988BFF36F8F704734000020EFF30580CB
:10028000704700000648804706480047FEE7FEE743
:10029000FEE7FEE7FEE7FEE7FEE7FEE7FEE7FEE736
:1002A000D9260008AD0100082DE9F05F05460020C1
:1002B00092469B4688460646814640241BE02846D7
:1002C00041464746224600F08CFA53465A46C01A29
:1002D000914110D311461846224600F073FA2D1AA8
:1002E00067EB01084F4622460120002100F06AFA20
:1002F00017EB00094E41201EA4F10104DFDC484643
:1003000031462A464346BDE8F09F40EA01039B0779
:1003100003D009E008C9121F08C0042AFAD203E07A
:1003200011F8013B00F8013B521EF9D27047D2B2DE
:1003300001E000F8012B491EFBD270470022F6E7CE
:1003400010B513460A4604461946FFF7F0FF20464B
:1003500010BD30B504460020034600E05B1C93420C
:1003600003D2E05CCD5C401BF8D030BD2DE9FE4FE0
:10037000804681EA0300C00F0C46009021F0004146
:1003800023F00045B8EB0200A94105D240462146C2
:1003900090461C460B46024623F00040104347D0CF
:1003A000270DC7F30A00C3F30A510290401A0190C7
:1003B00040286BDAC3F3130040F4801B0098924688
:1003C00020B10023D2EB030A63EB0B0B01985946D3
:1003D000C0F14002504600F0F5F906460D46504681
:1003E0005946019A00F00DFA10EB08006141002413
:1003F00087EA115284EAE7731A4340D0009A62B345
:10040000019A012A4FEA075215DC001B61EB020139
:100410004FF0004202EA0752CDE90042001C41F5CC
:10042000801132462B4600F044FA03B0BDE8F08F4D
:1004300040462146F9E7001B61EB0201001C41F533
:10044000801300185B412018A2F5001747EB030149
:1004500040EAD570B6196D4111E06D084FEA3606D5
:1004600045EAC0754FEA0752001B61EB0201001C10
:1004700041F5801149084FEA3000001951413246D8
:100480002B4603B0BDE8F04F00F004BA00980122FB
:1004900040000023D0EB020263EBE073009821469A
:1004A0004FEAE074B8EB000061EB0401E9E783F088
:1004B00000435BE781F0004158E72DE9FE4F81EAF8
:1004C000030404F0004421F0004100944FF0000BBD
:1004D00023F0004350EA01045ED052EA03045BD0EB
:1004E000C3F30A54C1F30A552C44A4F2F334019423
:1004F000A0FB0254C1F3130141F48011C3F31303B1
:1005000043F4801301FB024400FB034E840A970A64
:1005100044EA815447EA8357A4FB076802958D0A91
:1005200005FB07854FEA932C04FB0C542705029D1D
:100530004FEA065847EA1637B5EB08056EEB070C8D
:10054000870E920E47EA811742EA8312A7FB020147
:10055000B6EB0B0164EB00042B0D43EA0C335E1881
:1005600044EB1C50DA465146E7FB0201C5F3130485
:100570004FEA0B3343EA14534FEA0432019C43EA37
:100580000603A4F10C040294009CCDE900B400F031
:1005900090F903B0BDE8F08F00200146F9E72DE99E
:1005A000F04D81EA030404F0004B21F000451446AD
:1005B0004FF0000A23F0004150EA050220D054EA2F
:1005C00001021DD0C5F30A570246C5F31303C1F358
:1005D0001300C1F30A5640F4801543F48013A7EBCF
:1005E0000608101BD64608F2FD3873EB050002D34F
:1005F00008F1010801E092185B41B8F1000F03DA3D
:1006000000200146BDE8F08D00204FF48011064621
:1006100084460EE0171B73EB050705D3121B63EB33
:10062000050306434CEA010C49084FEA30009218D2
:100630005B4150EA0107EDD152EA030012D082EA91
:10064000040083EA0501084305D0101BAB4106D224
:100650000122002306E000224FF0004302E06FF089
:10066000010253101AEB06004CEB085110EB0A0084
:1006700041EB0B01BDE8F04D00F00CB90EB540F2B6
:10068000334102910021CDE900110A460B4600F0EA
:1006900010F903B000BD70B5C1F30A5201F0004576
:1006A0000024C1F3130140F2FF3341F480119A4258
:1006B00001DA002070BD40F233439A42A2F2334285
:1006C00003DC524200F08DF800E090402C43F1D062
:1006D000404270BDC1F30A5210B5C1F3130140F29C
:1006E000FF3341F480119A4201DA002010BD40F23C
:1006F00033439A42A2F2334203DC524200F071F8D3
:1007000010BD904010BD00F0004230F000400AD013
:10071000C10D01F56071C0F3160042EA0151C20833
:1007200040071143704700200146704730B5041E52
:1007300071F1000404DB4FF00044404264EB01011E
:10074000141E73F1000405DB1C464FF000435242B7
:1007500063EB04038B4208BF824230BD30B5041EF8
:1007600071F1000404DB4FF00044404264EB0101EE
:10077000141E73F1000405DB1C464FF00043524287
:1007800063EB0403994208BF904230BD01F000437F
:1007900030B421F0004150EA010206D00A0DA2F562
:1007A0006072C1F31301002A02DC30BC00207047E4
:1007B000440F44EAC104C100E01830BC00EBC25051
:1007C00000F031B8202A04DB203A00FA02F10020C0
:1007D00070479140C2F1200320FA03F3194390407F
:1007E0007047202A04DB203A21FA02F000217047EA
:1007F00021FA02F3D040C2F1200291400843194689
:100800007047202A06DBCB17203A41FA02F043EA70
:10081000E07306E041FA02F3D040C2F120029140B9
:100820000843194670470029A8BF7047401C49007B
:1008300008BF20F00100704710B4B0FA80FC00FA45
:100840000CF050EA010404BF10BC704749B1CCF170
:10085000200421FA04F411FA0CF118BF01212143FC
:100860000843A3EB0C01CB1D4FEA00614FEA1020B7
:1008700042BF002010BC704700EBC3501044002959
:10088000A4BF10BC7047401C490008BF20F0010005
:1008900010BC704710B5141E73F1000408DA401C38
:1008A00041F1000192185B411A4301D120F001008F
:1008B00010BD2DE9F04D92469B4611B1B1FA81F27F
:1008C00002E0B0FA80F220329046FFF77BFF044648
:1008D0000F4640EA0A0041EA0B0153465A460843D4
:1008E00013D0114653EA010019D0C8F14002504616
:1008F000FFF777FF05460E46504659464246FFF73A
:1009000061FF084305D0012004E020463946BDE8D8
:10091000F08D0020054346EAE0762C4337430A98E1
:100920006305E40AA0EB08000022FD0A44EA4754EC
:100930000A3002D500200146E9E701051019694196
:10094000DDE9084500196941BDE8F04DA2E72DE950
:10095000F04D00231A461B1A8A4103DB0020014692
:10096000BDE8F08DC1F30A52C1F3130141F48015C3
:100970004FF0000BD10702D100186D41521E002725
:10098000044640F2FF11384601EB620A3E468046BB
:10099000024600204FF48011FFF723FFC219714176
:1009A000BB1846EB0100B4EB030C75EB000C04D351
:1009B000E41A65EB000517460E46241908F10100FC
:1009C0006D4180463428E3DDF91946EB0600091B2A
:1009D000A84103D24FF0FF32134601E00022134634
:1009E0001BEB070046EB0A51BDE8F04DFFF752BF85
:1009F0002DE9F041054621F000400C46284309D07E
:100A0000C4F30A5040F23341884205DD28462146AE
:100A1000BDE8F0812846FBE740F2FE31884210DC59
:100A20000CDB4FEA043040EA155050EA053105D09E
:100A3000104804F0004101430020E9E7002001468E
:100A4000E6E7A0F233404642C6F14002284621467E
:100A5000FFF7B8FE07468846284621463246FFF78C
:100A6000C0FE43463A46FFF715FF3246BDE8F04167
:100A7000FFF7A8BE0000F03F2DE9F047C1F30A548C
:100A800001F0004805460027C1F3130140F2FF3092
:100A900041F4801684421ADAB4F57F7F00DC841EAC
:100AA000A4F213446242924628463146FFF799FE6B
:100AB00004465246FFF786FE45404E40354301D07E
:100AC000012000E0002044EA000100201BE040F289
:100AD000334084421ADCA4F2F33228463146FFF751
:100AE00071FE0A4678405140084301D0012000E0E1
:100AF000002040EA020AA4F233446242284631460A
:100B0000FFF76FFE5146FFF78EFE03E0A4F2334479
:100B100005FA04F057EA080700D04042BDE8F08724
:100B2000064C074D06E0E06840F0010394E807003A
:100B300098471034AC42F6D3FFF73CFB9CD3000837
:100B4000BCD300080EB5C10F80EAE0700844CA07A4
:100B5000002140F233438DE80E000A460B46FFF7B2
:100B6000A8FE03B000BD00BFFEE7704710B51348F4
:100B7000006800F0100010B11020104908600F4804
:100B8000006800F4006018B14FF400600B49086081
:100B90000A48006800F4805018B14FF480500749AB
:100BA000086007480078012807D00648007820B977
:100BB00006F0FEFC01200BF00FFC10BD143C0140C0
:100BC000AC0E00202A00002072B600BFFEE7000035
:100BD00010B5002201B909E0012901D10A0205E09E
:100BE000022901D10A0201E04FF440720B2800D91A
:100BF000001D0E4B1B6823F440730C4C23602346EE
:100C00001B681343236023461B6823F0F80323600B
:100C100023461B68022444EAC0042343034C236098
:100C200023461B6843F48033236010BD103C024010
:100C30001C48006800F40070B0B11A48006820F445
:100C400000701849086000BF0846006840F4006062
:100C500008600846006820F40060086000BF08468D
:100C6000006840F4007008600E48006800F480607E
:100C7000B0B10C48006820F480600A49086000BFE9
:100C80000846006840F4805008600846006820F478
:100C90008050086000BF0846006840F4806008602B
:100CA00070470000003C0240134A126822F4407270
:100CB000114B1A60032906D11A461268DB131A4336
:100CC0000D4B1A600EE0012906D10B4A126842F062
:100CD0000402094B1A6005E0074A126842F4004218
:100CE000054B1A60044A12684FF4803343EA00232C
:100CF0001A43014B1A607047103C0240074A1268C1
:100D000022F44072054B1A601A4612681A601A469D
:100D1000126842F001021A6001707047103C0240F4
:100D200010B50D49096821F440710B4C2160214632
:100D3000096841F4407121602146096841F00101D0
:100D40002160026000BF00BF00BFBFF36F8F00BF14
:100D500000BF00BF436010BD103C0240084A12684B
:100D600022F44072064B1A601A46126842F48072EE
:100D70001A601A46126842F001021A600180704738
:100D8000103C0240084A126822F44072064B1A6076
:100D90001A46126842F400721A601A46126842F04B
:100DA00001021A6001607047103C02402A48006846
:100DB00000F0100040B12948C06940F010002749F8
:100DC000C8611020244908602348006800F0200012
:100DD00040B12248C06940F008002049C861202085
:100DE0001D4908601C48006800F0400040B11B48E5
:100DF000C06940F004001949C861402016490860E4
:100E00001548006800F0800040B11448C06940F007
:100E100002001249C86180200F4908600E4800682E
:100E200000F4807048B10D48C06940F001000B49E2
:100E3000C8614FF48070084908600748006800F0F6
:100E4000020040B10548C06940F020000349C86174
:100E500002200149086070470C3C0240000100205C
:100E600070B50446002500201449C86100F024FA3A
:100E7000054609E0601C38B124B100F01DFA401BA2
:100E8000A04201D9032070BD0D48006800F48030F5
:100E90000028EFD10A48006800F0010010B10120DD
:100EA000074908600648006800F4F97018B1FFF7B8
:100EB0007DFF0120E7E70020E5E7000000010020BA
:100EC0000C3C024070B5044600F0F6F90646254693
:100ED000681C10B104480078054400BF00F0ECF92C
:100EE000801BA842FAD370BD080000202DE9F04114
:100EF00004460E460127002500BF2648007E012833
:100F000002D10220BDE8F08101202249087600BF0D
:100F10004CF25030FFF7A4FF0746002F32D1401E9D
:100F200030602068012810D1207C6168FFF7BCFE8A
:100F30004CF25030FFF794FF07461748006848F21C
:100F400004018843144908601AE0A56812E0217C76
:100F50002846FFF73DFE4CF25030FFF781FF074671
:100F60000D48006820F0FA000B4908600FB13560A9
:100F700005E06D1CD4E902100844A842E7D800BF80
:100F8000FFF756FE00BF00200249087600BF384632
:100F9000B8E7000000010020103C02400348006850
:100FA00040F000400149086000207047103C0240BA
:100FB0002DE9F04106460F4614461D464FF0010844
:100FC00000BF1F48007E012802D10220BDE8F08149
:100FD00001201B49087600BF4CF25030FFF740FF5C
:100FE0008046B8F1000F23D126B9E1B23846FFF7A9
:100FF00085FE12E0012E04D1A1B23846FFF7AEFE05
:101000000BE0022E04D121463846FFF7BBFE04E078
:1010100022462B463846FFF783FE4CF25030FFF74E
:101020001FFF80460748006820F00100054908605E
:1010300000BF00200249087600BF4046C6E7000016
:1010400000010020103C024000200949096801F01D
:10105000004159B10749064A0C3A1160064911602E
:101060000349096801F0004101B101207047000007
:10107000103C024023016745AB89EFCDF8B502462D
:101080000B460025002400200021E8E0012606FA96
:1010900001F51E6806EA0504AC4275D11E7906F01A
:1010A0000306012E04D01E7906F00306022E13D18A
:1010B00090684F000326BE40B0434F00DE68BE403C
:1010C00030439060506801268E40B0431E79C6F3CD
:1010D00000168E40304350601E7906F00306032E42
:1010E00009D0D0684F000326BE40B0434F009E6831
:1010F000BE403043D0601E7906F00306022E13D1A5
:10110000CF0802F1200656F827004E07F70E0F26EB
:10111000BE40B0434F07FF0E1E69BE403043CF08AC
:1011200002F1200646F8270010684F000326BE4053
:10113000B0431E7906F003064F00BE4030431060F6
:101140005E6806F08056B6F1805FA6D100BF00262B
:101150000096454E366846F48046434F3E603E4614
:10116000366806F48046009600BF00BF3F4E8F08E9
:1011700056F827008E07370F0F26BE40B0433C4E6F
:10118000B24202D100262EE068E03A4EB24201D1CE
:10119000012628E0384EB24201D1022623E0374E24
:1011A000B24201D103261EE0354EB24201D10426DF
:1011B00019E0344EB24201D1052614E0324EB2425B
:1011C00001D106260FE0314EB24201D107260AE0D6
:1011D0002F4EB24201D1082605E02E4EB24201D177
:1011E000092600E00A268F073F0FBE4030431F4EFE
:1011F0008F0846F82700284E3068A0435E6806F442
:101200008036B6F5803F00D12043234E3060361D36
:101210003068A0435E6806F40036B6F5003F00D1A2
:1012200020431D4E361D3060361D3068A0435E6879
:1012300006F48016B6F5801F00D12043164E0836FE
:101240003060361D3068A0435E6806F40016B6F5BF
:10125000001F00D12043104E0C363060491C10296D
:10126000FFF414AFF8BD00004438024008380140D4
:10127000000002400004024000080240000C02404E
:10128000001002400014024000180240001C0240FE
:101290000020024000240240003C01400246136945
:1012A0000B400BB1012000E0002070470AB18161C2
:1012B00001E00B048361704701480068704700003B
:1012C00000000020034800680349097808440149E8
:1012D00008607047000000200800002010B50D488D
:1012E000006840F400700B4908600846006840F44C
:1012F000806008600846006840F480700860032041
:1013000000F0E4F8002000F007F800F04BF80020AF
:1013100010BD0000003C024070B588B004460025B6
:10132000002600222146362000F092F8362000F0F8
:101330007FF800BF002001901648006840F01000C0
:10134000144908600846006800F01000019000BFD2
:1013500000BF02A903A800F0D5F900F0FBF9450091
:101360000D48B5FBF0F0461E0C480D49086040F2F0
:10137000E7310B48C160466000210161816000F0E7
:101380002BFE20B9064800F05BFE08B070BD0120BE
:10139000FBE700004038024040420F0000100040D0
:1013A000B800002008B500BF002000900E4800687B
:1013B00040F480400C4908600846006800F4804012
:1013C000009000BF00BF00BF00200090081F006811
:1013D00040F08050091F08600846006800F0805007
:1013E000009000BF00BF08BD4438024010B5014660
:1013F0000846002817DB00F01F0301229A400B4B20
:10140000440943F8242000BF00BF00BFBFF34F8F43
:1014100000BF00BF00BF00BF00BF00BFBFF36F8FA2
:1014200000BF00BF00BF00BF10BD000080E100E0B2
:1014300001460846002809DB00F01F0301229A40FC
:1014400043099B0003F1E023C3F8002100BF70476C
:101450002DE9F05F80460D461646002701F0E6FBB9
:10146000074639462A46334601F00700C0F1070A0D
:10147000BAF1040F02D94FF0040A01E0C0F1070AE3
:10148000D14600F1040ABAF1070F02D24FF0000A68
:1014900001E0A0F1030AD4464FF0010A0AFA09FA62
:1014A000AAF1010A0AEA020A0AFA0CFA4FF0010B41
:1014B0000BFA0CFBABF1010B0BEA030B4AEA0B0432
:1014C0002146404601F0BAFBBDE8F09F00BF00F0A6
:1014D0000702064B19684FF6FF031940044B0B43F4
:1014E00043EA0221014B196000BF70470CED00E098
:1014F0000000FA0538B5002400BF002000901D4808
:10150000006840F080501B4908600846006800F001
:101510008050009000BF00BF012017490864FFF70A
:10152000CBFE044607E0FFF7C7FE001BB0F57A7F4D
:1015300001D9032038BD1148406800F48030B0F56F
:10154000803FF0D101200C494864FFF7B5FE044606
:1015500007E0FFF7B1FE001BB0F57A7F01D9032049
:10156000E8E70648406800F40030B0F5003FF0D1ED
:101570000020DFE74038024000000E4200700040CB
:1015800070B504460D460CB9012070BD584800687E
:1015900000F00F00A84209D255490D7008460068B6
:1015A00000F00F00A84201D00120EEE7207800F003
:1015B000020002281DD1207800F00400042805D183
:1015C0004C48006840F4E0504A490860207800F038
:1015D0000800082805D14748006840F460404549A4
:1015E00008604448006820F0F000A16808434149C1
:1015F0000860207800F00100A8B36068012807D1D6
:101600003C4808380068C0F34040B8B90120BCE746
:101610006068022802D06068032807D1354808387E
:101620000068C0F3406048B90120AEE7314808388F
:101630000068C0F3400008B90120A6E72D48006803
:1016400020F00300616808432A490860FFF734FE70
:10165000064609E0FFF730FE801B41F288318842E0
:1016600002D9032091E707E02248006800F00C004F
:101670006168B0EB810FEDD11D48006800F00F00EC
:10168000A84209D91A490D700846006800F00F00F9
:10169000A84201D0012078E7207800F00400042857
:1016A00007D11448006820F4E050E168084311496C
:1016B0000860207800F00800082808D10D4800686C
:1016C00020F46040216940EAC1000A49086000F046
:1016D00061F808490968C1F30311074A515CC84021
:1016E0000649086006480068FFF716FE00204CE730
:1016F000003C02400838024074D100080C00002071
:10170000040000200F2202600D4A126802F003025A
:1017100042600B4A126802F0F0028260084A1268C6
:1017200002F4E052C260064A126802F46042D20833
:101730000261044A126802F00F020A60704700005A
:1017400008380240003C0240014800687047000031
:101750000C00002000B5FFF7F7FF04490968C1F34A
:101760008221034A515CC84000BD00000838024095
:1017700084D1000800B5FFF7E7FF04490968C1F309
:101780004231034A515CC84000BD000008380240A5
:1017900084D100082DE9F047002400250026A14649
:1017A0002548006800F00C0020B1042805D0082866
:1017B0003AD105E0DFF8849039E0DFF8849036E034
:1017C0001D48001F006800F03F041B48001F006810
:1017D00000F4800078B11A481749091F0968C1F35D
:1017E0008811A0FB01700146224600233846FEF70F
:1017F0005BFD05460EE011480F49091F0968C1F35A
:101800008811A0FB01700146224600233846FEF7EE
:101810004BFD05460848001F0068C0F30140401C0E
:101820004600B5FBF6F902E0DFF8109000BF00BFFC
:101830004846BDE8F0870000083802400024F40064
:1018400040787D01F8B504460CB90120F8BD207838
:1018500000F00100002874D0F948006800F00C0086
:1018600004280DD0F648006800F00C00082813D1B9
:10187000F348001F006800F48000B0F5800F0BD122
:10188000EF4808380068C0F34040002859D060682D
:10189000002856D10120D9E700BF6068B0F5803F2D
:1018A00008D1E7480838006840F48030E449083936
:1018B00008601EE06068B0F5A02F0DD1E048083840
:1018C000006840F48020DE49083908600846006856
:1018D00040F4803008600CE0D9480838006820F4F3
:1018E0008030D749083908600846006820F4802015
:1018F000086000BF606890B1FFF7DEFC054606E0B7
:10190000FFF7DAFC401B642801D903209EE7CC488E
:1019100008380068C0F340400028F1D011E0FFF71C
:10192000CBFC054606E0FFF7C7FC401B642801D945
:1019300003208BE7C24808380068C0F34040002805
:10194000F1D1207800F0020002285FD1BC48006885
:1019500000F00C0058B1BA48006800F00C000828EC
:101960001CD1B748001F006800F48000B0B9B4482B
:1019700008380068C0F3400020B1E068012801D0B9
:10198000012063E7AE480838006820F0F8002169BC
:1019900040EAC100AA490839086037E0E06800B3AE
:1019A0000120A8490860FFF787FC054606E0FFF71D
:1019B00083FC401B022801D9032047E7A0480838D0
:1019C0000068C0F340000028F1D09D480838006846
:1019D00020F0F800216940EAC100994908390860FF
:1019E00014E0002097490860FFF766FC054606E012
:1019F000FFF762FC401B022801D9032026E790482C
:101A000008380068C0F340000028F1D1207800F0C9
:101A1000080008282CD16069A8B101208A49086013
:101A2000FFF74AFC054606E0FFF746FC401B02288C
:101A300001D903200AE782486C300068C0F34000F7
:101A40000028F1D014E000207F490860FFF734FC43
:101A5000054606E0FFF730FC401B022801D90320B1
:101A6000F4E677486C300068C0F340000028F1D1FC
:101A7000207800F00400042870D100277048383026
:101A8000006800F0805090B900BF002000906C48C2
:101A90003830006840F080506949383108600846A5
:101AA000006800F08050009000BF00BF0127674829
:101AB000006800F48070B0B96448006840F4807039
:101AC00062490860FFF7F8FB054606E0FFF7F4FB04
:101AD000401B022801D90320B8E65C48006800F4E6
:101AE00080700028F2D000BFA068012808D15448B7
:101AF0006830006840F001005149683108601DE01D
:101B0000A06805280DD14E486830006840F00400F8
:101B10004B49683108600846006840F001000860E1
:101B20000CE047486830006820F001004449683103
:101B300008600846006820F00400086000BFA06844
:101B4000A8B1FFF7B9FB054609E0FFF7B5FB401B5D
:101B500041F28831884202D9032077E626E03848EE
:101B600068300068C0F340000028EED013E0FFF7B3
:101B7000A3FB054608E0FFF79FFB401B41F28831BD
:101B8000884201D9032061E62D4868300068C0F31F
:101B900040000028EFD1012F07D1294838300068D4
:101BA00020F0805026493831086000BFA069002825
:101BB00045D02348006800F00C0008285DD0A069DB
:101BC000022845D100201F490866FFF775FB05462E
:101BD00006E0FFF771FB401B022801D9032035E620
:101BE000174808380068C0F340600028F1D1D4E9F4
:101BF00007010843616A40EA81110122A06AC2EB31
:101C0000500041EA00412C20005D41EA00600C498F
:101C1000091F086001200B490866FFF74DFB0546C8
:101C200006E0FFF749FB401B022801D903200DE61F
:101C3000034808380068C0F340600028F1D049E04C
:101C40000838024000004742800E474200700040C2
:101C5000002021490866FFF72FFB054606E0FFF745
:101C60002BFB401B022801D90320EFE51B4800682D
:101C7000C0F340600028F2D12CE0A069012800D117
:101C8000E4E51648001D0668A069012820D006F486
:101C90008001E06981421BD106F03F01206A814248
:101CA00016D147F6C0703040616AB0EB811F0FD18A
:101CB00006F440310122A06AC2EB5000B1EB004FA4
:101CC00006D106F070612C20005DB1EB006F01D0F1
:101CD0000120BBE50020B9E5000047420038024082
:101CE00010B504460CB9012010BD606A38B96068AF
:101CF000B0F5827F00D105E00021E16102E0002122
:101D0000216161610021A16294F8510028B900208D
:101D100084F85000204600F047F8022084F8510073
:101D20002068006820F0400021680860A08800F466
:101D30008270218901F404410843A18901F4006102
:101D40000843217C01F002010843217D01F00101DB
:101D50000843218B01F400710843217F01F0380111
:101D600008432021095D01F080010843218D01F421
:101D700000510843216808600421A06901EA10406D
:101D800094F8241001F0100108432168486020688D
:101D9000C06920F400602168C861002060650120EE
:101DA00084F8510000209FE770472DE9FF5F04464B
:101DB000884691461D460E9E01200290002001900B
:101DC00000BF94F85000012803D1022004B0BDE800
:101DD000F09F012084F8500000BFFFF76DFA07461E
:101DE00094F851B060680390AA46BBF1010F0BD084
:101DF0000398B0F5827F04D1A06810B9BBF1040F3D
:101E000002D002200190DBE0B8F1000F03D0B9F15D
:101E1000000F00D015B901200190D1E094F85100D5
:101E2000042802D0052084F8510000206065C4F821
:101E30003890E587A587C4F83080E586A5862064BC
:101E400060642068006800F04000402805D02068E9
:101E5000006840F0400021680860E068B0F5006F5D
:101E60004AD1606810B1BAF1010F09D1206B008826
:101E70002168C860206B801C2063E08E401EE086D5
:101E800033E02068806800F00200022810D1E08E64
:101E900070B1029801280BD1206B00882168C860BE
:101EA000206B801C2063E08E401EE08600200290A4
:101EB0002068806800F0010068B1E08F58B12068A8
:101EC000C068A16B0880A06B801CA063E08F401EDF
:101ED000E08701200290FFF7EFF9C01BB04204D366
:101EE000701C10B1032001906AE0E08E0028C8D178
:101EF000E08F0028C5D14AE0606810B1BAF1010F47
:101F000009D1206B007821680873206B401C206386
:101F1000E08E401EE08634E02068806800F0020019
:101F2000022810D1E08E70B1029801280BD1206BED
:101F3000007821680873206B401C2063E08E401EEF
:101F4000E086002002902068806800F0010068B1FF
:101F5000E08F58B12068C068A16B0870A06B401C6E
:101F6000A063E08F401EE08701200290FFF7A4F9F4
:101F7000C01BB04201D3701C00B916B903200190F8
:101F80001EE0E08E0028C7D1E08F0028C4D13A4679
:101F90003146204600F080FA20B101200190202037
:101FA00060650DE0A06850B900BF00200090206877
:101FB000C068009020688068009000BF00BF00BF2C
:101FC000012084F8510000BF002084F8500000BFB9
:101FD0000198FBE67047704710B504460CB9012024
:101FE00010BD94F83D0028B9002084F83C0020463C
:101FF00000F025F8022084F83D00211D206800F043
:102000008DFB012084F8460000BF84F83E000121CA
:102010003F200155402001554120015500BF00BF20
:10202000012084F8420043200155442001554520F9
:10203000015500BF012084F83D000020D0E7704723
:10204000014691F83D00012801D00120704702208F
:1020500081F83D000868C06840F001000B68D86056
:102060001A4B086898421BD00868B0F1804F17D00F
:10207000174B0868984213D0164B086898420FD047
:10208000154B086898420BD0144B0868984207D04B
:10209000134B0868984203D0124B086898420CD141
:1020A0000868806800F00702062A0CD008680068FB
:1020B00040F001000B68186005E00868006840F017
:1020C00001000B6818600020C0E70000000001401C
:1020D0000004004000080040000C004000040140E3
:1020E0000040014000180040704710B504462068C9
:1020F0000069C0F34000D8B12068C068C0F3400058
:10210000B0B16FF0020021680861012020772068DB
:10211000806900F0030018B12046FFF7E5FF05E0F5
:10212000204600F0ADF8204600F0ABF80020207704
:1021300020680069C0F38000D8B12068C068C0F38F
:102140008000B0B16FF004002168086102202077A0
:102150002068806900F4407018B12046FFF7C4FF82
:1021600005E0204600F08CF8204600F08AF80020B8
:10217000207720680069C0F3C000D8B12068C0682B
:10218000C0F3C000B0B16FF00800216808610420FE
:1021900020772068C06900F0030018B12046FFF7DF
:1021A000A3FF05E0204600F06BF8204600F069F838
:1021B0000020207720680069C0F30010D8B12068A3
:1021C000C068C0F30010B0B16FF010002168086162
:1021D000082020772068C06900F4407018B12046BC
:1021E000FFF782FF05E0204600F04AF8204600F0A5
:1021F00048F8002020772068006900F0010058B1FD
:102200002068C06800F0010030B16FF00100216863
:102210000861204600F036F820680069C0F3C0105D
:1022200058B12068C068C0F3C01030B16FF08000B2
:10223000216808612046FFF7CDFE20680069C0F3E1
:10224000801058B12068C068C0F3801030B16FF0C2
:10225000400021680861204600F030F820680069DD
:10226000C0F3401058B12068C068C0F3401030B1CE
:102270006FF02000216808612046FFF7ACFE10BD1A
:102280007047704710B5044609492068884202D15A
:10229000FFF718F80AE00748844202D107F0DAFF96
:1022A00004E00548844201D108F01CF910BD00008B
:1022B00000100040C005002078050020704710B5D0
:1022C00004460CB9012010BDA06900B100E000BFB8
:1022D00094F83D0028B9002084F83C00204600F026
:1022E00027F8242084F83D002068C06820F40050BE
:1022F0002168C860204600F07DFA2068006920F45B
:102300009040216808612068406920F02A00216817
:1023100048612068C06840F400502168C86000200F
:102320002064202084F83D0084F83E000020CAE7A5
:1023300070472DE9F84F04460E46174699464FF070
:10234000000A94F83D0020285AD106B117B901209F
:10235000BDE8F88F00BF94F83C00012801D10220AD
:10236000F6E7012084F83C0000BF00202064212013
:1023700084F83D00FEF7A0FF8246A784E784A068AA
:10238000B0F5805F04D1206910B90025B04602E0A5
:1023900035464FF0000800BF002084F83C0000BF25
:1023A0001BE05346002280212046CDF8009000F02B
:1023B00037FB08B10320CBE745B9B8F80000C0F3FC
:1023C00008002168486008F1020803E028782168C5
:1023D00048606D1CE08C401EE084E08C0028E0D159
:1023E0005346002240212046CDF8009000F018FB13
:1023F00008B10320ACE7202084F83D000020A7E7C7
:102400000220A5E702A000F0E9FB00BFFEE7000004
:10241000656E7274657220486172644661756C7491
:102420005F48616E646C65720A00000008B500BF09
:10243000002000901548006840F00400134908602F
:102440000846006800F00400009000BF00BF00BF15
:10245000002000900846006840F0800008600846B0
:10246000006800F08000009000BF00BF00BF0020A7
:1024700000900846006840F00100086008460068C7
:1024800000F00100009000BF00BF08BD30380240DE
:1024900000BFFEE700BFFEE77CB504460D461646CA
:1024A000164800681821B0FBF1F01549B0FBF1F0B7
:1024B0004FF47A71484301906068B0F5827F0DD186
:1024C0002B46002280212046009600F01BF898B190
:1024D000606D40F02000606503207CBD00BF019866
:1024E00000B908E00198401E019020688068C0F3A0
:1024F000C0100028F3D100BF0020EEE70C00002040
:1025000040420F002DE9F84F04460D4690461E4606
:10251000DDF82890FEF7D0FEA0EB0900371AFEF791
:10252000CBFE82462C480068C0F3CB307843009045
:1025300045E0701C002842D0FEF7BEFEA0EB0A006A
:10254000B84200D2A7BB2068406820F0E0002168B4
:1025500048606068B0F5827F0DD1A068B0F5004F8B
:1025600003D0A068B0F5806F05D12068006820F026
:10257000400021680860A06AB0F5005F0DD100BF7F
:102580002068006820F40050216808602068006816
:1025900040F400502168086000BF012084F8510019
:1025A00000BF002084F8500000BF0320BDE8F88F72
:1025B000FFE7009800B900270098401E00902068AF
:1025C00080682840A84201D1012000E00020404559
:1025D000AFD10020EAE700000C00002001460868A7
:1025E0007047000010B500BF402080F31188BFF392
:1025F0004F8FBFF36F8F00BF0AF0EAFB18B14FF0A7
:1026000080500449086000BF002080F3118800BF9B
:1026100010BD000004ED00E000B593B0302107A824
:10262000FDF78CFE142102A8FDF788FE00BF0020F4
:1026300001902748006840F080502549086008460E
:10264000006800F08050019000BF00BF00BF002074
:1026500001902048006840F440401E490860084648
:10266000006800F44040019000BF00BF02200790C6
:1026700001200A9010200B9002200D9000210E9155
:1026800008210F91B421109102211191042112917E
:1026900007A8FFF7D7F808B1FEF796FAFEF72AFF6A
:1026A00008B1FEF791FA0F2002900220039000205B
:1026B00004904FF4A05005904FF4805006900521EF
:1026C00002A8FEF75DFF08B1FEF77EFA13B000BD69
:1026D00040380240007000400348006840F4700039
:1026E000014908607047000088ED00E010B502481D
:1026F000FFF7FBFC10BD00007805002010B5024874
:10270000FFF7F3FC10BD0000C005002010B5024823
:10271000FFF7EBFC10BD0000B800002010B5026808
:10272000294B98420ED0B0F1804F0BD0274B9842E6
:1027300008D0274B984205D0264B984202D0264B12
:10274000984203D122F070024B681A431E4B984204
:1027500020D0B0F1804F1DD01C4B98421AD01C4B9A
:10276000984217D01B4B984214D01B4B984211D063
:102770001A4B98420ED01A4B98420BD0194B9842E4
:1027800008D0194B984205D0184B984202D0184BEC
:10279000984203D122F44072CB681A4322F080039E
:1027A0004C6943EA040202608B68C3620B6883626F
:1027B000054B984202D0084B984201D10B69036344
:1027C0000123436110BD00000000014000040040EF
:1027D00000080040000C004000040140004001409F
:1027E000004401400048014000180040001C004027
:1027F000002000402DE9F84F04462068006920F4CD
:102800004050E1680843216808612169A0680843D5
:1028100061690843E169084300902068C06849F293
:102820000C618843009908432168C86020684069AA
:1028300020F44070A1690843216848617649206806
:10284000884203D075492068884203D1FEF792FF81
:10285000814602E0FEF77EFF8146E069B0F5004F59
:102860006CD102206168A0FB015003461920A9FB2E
:10287000007001462A463846FDF716FD6421B0FB7C
:10288000F1F04FEA001A02206168A0FB01510B46EB
:102890001920A9FB00712A463846FDF705FD83463D
:1028A00002206168A0FB015003461920A9FB0071BA
:1028B0002A463846FDF7F8FC6421B0FBF1F000EB46
:1028C000C00101EB0010ABEB8000322101EBC00036
:1028D0006421B0FBF1F000F0F8000AEB400A02209E
:1028E0006168A0FB015003461920A9FB0070014656
:1028F0002A463846FDF7D8FC834602206168A0FBD3
:10290000015003461920A9FB00712A463846FDF7FD
:10291000CBFC6421B0FBF1F000EBC00101EB001037
:10292000ABEB8000322101EBC0006421B0FBF1F081
:1029300000F007005044216888606AE00420616864
:10294000A0FB015003461920A9FB007001462A464E
:102950003846FDF7A9FC824604206168A0FB0150BF
:1029600003461920A9FB007001462A463846FDF7A8
:102970009BFC6421B0FBF1F000EBC00101EB001007
:10298000AAEB8000322101EB00106421B0FBF1F0D2
:1029900000F0F00A04206168A0FB017003461920D2
:1029A000A9FB00513A462846FDF77EFC6421B0FBA6
:1029B000F1F00AEB001A04206168A0FB01510B46FC
:1029C0001920A9FB00712A463846FDF76DFC8346A5
:1029D00004206168A0FB015003461920A9FB007088
:1029E00001462A463846FDF75FFC6421B0FBF1F052
:1029F00000EBC00101EB0010ABEB8000322101EBDA
:102A000000106421B0FBF1F000F00F005044216889
:102A10008860BDE8F88F00000010014000140140FC
:102A20002DE9F04104460D4617469846069E21E0E2
:102A3000701CF8B12EB1FEF73FFCA0EB0800B042CD
:102A400018D92068C06820F4D0702168C860206858
:102A5000406920F0010021684861202084F83D0091
:102A600084F83E0000BF002084F83C0000BF032033
:102A7000BDE8F081206800682840A84201D101200B
:102A800000E00020B842D3D00020F1E738B503F0D1
:102A9000FBFC0090009800F02000002872D003F0AA
:102AA000EBFCC4B2182C06D0212C0FD03F2C05D043
:102AB0007E2C0FD106E004F07BFD80E0012009F0C0
:102AC0009FFC7CE0022009F09BFC78E0082009F0E4
:102AD00097FC74E07F2C5FDDA4F184001D285AD29E
:102AE000DFE800F00F135959595959595959595993
:102AF0001C2024282C303438593C4044484C51592F
:102B00005500202009F07CFC45E02F48007800F0BB
:102B1000200010B1402009F073FC3CE0012009F0D6
:102B200065FC38E0022009F061FC34E0042009F083
:102B30005DFC30E0082009F059FC2CE0102009F081
:102B400055FC28E0202009F051FC24E0402009F049
:102B50004DFC20E0802009F049FC1CE0012009F038
:102B600031FC18E0022009F02DFC14E0042009F0EB
:102B700029FC10E0082009F025FC0CE0102009F0E9
:102B800021FC08E01EE0202009F01CFC03E04020AE
:102B900009F018FC00BF11E00C480078401CC5B2D9
:102BA000B5F5807F00D1002509480078854205D021
:102BB00008480649097844540448057000BF00BF1E
:102BC00003F0A0F938BD0000AC0E00201400002076
:102BD00015000020240B002000BFFEE70FB4054BBA
:102BE00010B503A9044A029801F056FA10BC5DF82A
:102BF00014FB000075450008B000002003B40198E4
:102C00004100009850EAC12018BF04204A0D18BFA7
:102C100040F0010040F2FF72B2EB515F08BF40F09C
:102C20000200012808BF052002B070470248006872
:102C3000C0F30220704700000CED00E010B5002842
:102C400004DB0A07130E054A135406E00A07140EA4
:102C5000034A00F00F031B1FD45410BD00E400E032
:102C600018ED00E00000000070B59B482DED020B50
:102C70002DED068B079D25F00044A04218DC9748F7
:102C8000844202DC0AD1069840B19DED060BBDECF2
:102C9000068B02B0BDE8704001F0AEB9002DCCBF8C
:102CA0009FED8F0B9FED900BBDEC068B02B070BDBE
:102CB0008F48A04215DD8F48A042D8BF4FF0FF34A7
:102CC00058DD9DED060B51EC100BFFF797FF042824
:102CD00008BF01F0B5F99DED060BBDEC068B02B007
:102CE00070BD9DED060B51EC100B01F037FCCDE9EA
:102CF000060181489FED828BA0423CDD8248A042C4
:102D00001FDD00249FED82AB9DED060B53EC1A2BCB
:102D100051EC100BFDF72AFB9DED060B41EC190B56
:102D200053EC1A2B51EC100BFDF7C7FB53EC182B8F
:102D3000FDF7BDFB53EC192BFDF731FCCDE9060186
:102D400049E09DED060B012453EC182B51EC100BC0
:102D5000FDF70CFB9DED060B41EC190B53EC182B0A
:102D600051EC100BFDF7A3FB53EC192BFDF717FCEF
:102D7000CDE906012FE06848A0421FDD02249FED47
:102D8000689B9DED060B53EC192B51EC100BFDF7D6
:102D900094FB53EC182BFDF7E9FA9DED060B41EC83
:102DA000180B53EC192B51EC100BFDF780FB53EC77
:102DB000182BFDF7F4FBCDE906010CE09DED060BA9
:102DC000032453EC102B9FED580B51EC100BFDF727
:102DD000E6FBCDE906019DED060B53EC102B51EC03
:102DE000100BFDF76AFB41EC180B53EC182BFDF7A9
:102DF00064FB41EC190B4E480621B0EE490AF0EE97
:102E0000690A784400F0E4FF53EC182B51EC100BE6
:102E1000FDF753FB41EC180B4648B0EE490AF0EEC3
:102E2000690A0521784400F0D3FF53EC192B51ECCB
:102E3000100BFDF742FB41EC100B51EC180B53EC5F
:102E4000102B002C0EDAFDF791FA9DED061B53ECCA
:102E5000112BFDF732FB9DED061B53EC112BFDF7FB
:102E600029FB35E0FDF782FA9DED061B53EC112B93
:102E7000FDF723FB41EC100B2F48784400EBC40016
:102E800090ED001B51EC100B53EC112BFDF70FFBD9
:102E90009DED061B53EC112BFDF709FB41EC100BCC
:102EA0002648784400EBC40090ED001B51EC100B59
:102EB00053EC112BFDF7FEFA41EC100B002DA2BFD5
:102EC000BDEC068B02B070BD51EC100B81F00041DF
:102ED00041EC100B01E70000000010440000F07FFF
:102EE000182D4454FB21F93F182D4454FB21F9BF00
:102EF0000000DC3F0000203E0000F33F0000000027
:102F0000000000000000F03F0000E63F000000006D
:102F100000000000000000400080034000000000AE
:102F2000000000000000F83F000000000000F0BFBB
:102F3000F2A30000A8A3000032A30000EAA2000050
:102F400070B56F4E2DED040B2DED048B82B0DDF8C6
:102F500024C0DDE907235C422CF000411C4341EA18
:102F6000D474069D22F00040B44205D86C422C4334
:102F700040EAD474B4420BD99DED081B9DED060BBD
:102F800002B0BDEC048B04B0BDE8704001F03EB867
:102F9000ACF14054A4F17F641C430BD0022404EA3A
:102FA000AC7444EAD27405439FED578B9FED582BC8
:102FB00007D015E09DED060B51EC100B01F0CCF99C
:102FC00042E0002C11BF012C9DED060B02B0BDECC0
:102FD000048B04BF04B070BD022C38D0032C3BD04E
:102FE0000B439FED4D1B9FED4E0B0AD0B14218D104
:102FF000B04209D121F0804120F080400991079032
:103000000FE0002A15DA10E0474B7B44002C08BF84
:1030100093ED000B0DD0012C10D0022C17D0032CF7
:103020001AD0B0421DD1002A03DAB0EE410AF0EE08
:10303000610A02B0BDEC048B04B070BD93ED000BCF
:1030400051EC100B81F0004141EC100BF1E7B0EEB8
:10305000480AF0EE680AECE7B0EE420AF0EE620AC7
:10306000E7E7401A00159FED329B3C28C8BF8DED65
:10307000000B17DCBCF1000FBCBF10F13C0F8DED55
:10308000009B0FDB9DED080B53EC102B9DED060B09
:1030900051EC100BFDF783FA01F060FA01F05CF9D6
:1030A000CDE90001B4B1012C10D0022C9FED220B10
:1030B00053EC102B9DED000B51EC100B19D0FDF7CC
:1030C000F6F953EC182BFDF7F2F9BDE7019880F003
:1030D000004001909DED000B53EC192B51EC100BAF
:1030E000FDF724FB04BF022000F0CAFF9DED000B9A
:1030F0009FE7FDF7DCF953EC182BFDF7DBF9A3E7AD
:103100000000F07F00000000182D4454FB2109400E
:10311000182D4454FB2109C0182D4454FB21F9BF3C
:10312000182D4454FB21F93F4AA200000000000082
:103130000000000000000000075C143326A6A13C3C
:103140002DE9F0412DED020B9FED3D0B2DED028B96
:103150009FED3D8BDDE90254C4F30A50A0F2FF3627
:10316000142E37DA002E18DA53EC102B9DED020BDB
:1031700051EC100BFDF7FAF853EC182BFDF7EEFAB3
:1031800057D2002CBCBF4FF00044002551DB54EA5D
:10319000050018BF2E4C1BD14BE02E4820FA06F735
:1031A00004EA070028431FD053EC102B9DED020BBF
:1031B00051EC100BFDF7DAF853EC182BFDF7CEFAB3
:1031C00037D2002C03DD4FF48010F0400444BC43A0
:1031D00000252EE0332E07DCA6F114004FF0FF315E
:1031E00021FA00F73D4206D19DED020BBDEC028BAA
:1031F00002B0BDE8F08153EC102B9DED020B51ECB9
:10320000100BFDF757F953EC182BFDF7A7FA10D266
:10321000002C0DDD142E08BF641C09D0C6F134004B
:10322000012101FA00F02844A84238BF641C054679
:10323000BD43CDE902549DED020BD7E7000000002D
:103240009C7500883CE4377E000000000000000010
:103250000000F03FFFFF0F0010B52F499FED2C1B22
:103260002DED020B84B0059820F000408842D8BFB5
:103270009DED040B2DDD2949884209D1049840B900
:103280004FF0010000F0FCFE00F0CAFE06B010BDD9
:1032900005DB9DED040B00F0AFFE06B010BD6846E7
:1032A0009DED040B00F0C0FA10F0030004BF9DED8B
:1032B000021B9DED000B0CD001280ED09DED021BD2
:1032C0009DED000B022817D0012000F0FDFD06B097
:1032D00010BD00F0C5FC06B010BD9DED021B9DEDBC
:1032E000000B012000F0F0FD51EC100B81F00041CB
:1032F00006B041EC100B10BD00F0B2FC51EC100B0D
:1033000081F0004106B041EC100B10BD0000000040
:103310000000000000000000FB21E93F0000F07FFA
:103320002DED020B019820F0004001909DED000B67
:1033300002B07047000000002DE9F0412DED020BB6
:103340009FED3D0B2DED028B9FED3D8BDDE9025492
:10335000C4F30A50A0F2FF36142E37DA002E18DA22
:1033600053EC102B9DED020B51EC100BFCF7FEFF04
:1033700053EC182BFDF7F2F957D2002CA4BF002410
:10338000254652DA24F00040284318BF2E4C4CD07A
:103390001AE02E4820FA06F704EA070028431FD057
:1033A00053EC102B9DED020B51EC100BFCF7DEFFE4
:1033B00053EC182BFDF7D2F937D2002C03DA4FF477
:1033C0008010F0400444BC4300252EE0332E07DC7F
:1033D000A6F114004FF0FF3121FA00F73D4206D16B
:1033E0009DED020BBDEC028B02B0BDE8F08153EC09
:1033F000102B9DED020B51EC100BFDF75BF853EC1D
:10340000182BFDF7ABF910D2002C0DDA142E08BFE3
:10341000641C09D0C6F13400012101FA00F02844EF
:10342000A84238BF641C0546BD43CDE902549DED5A
:10343000020BD7E7000000009C7500883CE4377E53
:1034400000000000000000000000F0BFFFFF0F00C0
:1034500010B52DED020B2DED088B9DED080B51ECF9
:10346000100BFDF7C5FA41EC180B9DED080B53EC62
:10347000182B51EC100BFDF71AF841EC190B0998B9
:103480009FED2D0B10F0004F53EC102B51EC190B4E
:103490009FED25AB9FED26BB0DD0FDF747F90DD96C
:1034A00053EC1B2B51EC190BFDF758F91BD213E011
:1034B00041EC180B17E0FDF739F906D253EC1A2B43
:1034C00051EC180BFCF7F3FFF2E753EC1B2B51EC1C
:1034D000190BFDF743F906D853EC1A2B51EC180BD6
:1034E000FCF744FFE4E79FED160B51EC180B53EC8F
:1034F000102BFDF733F908D351EC180B9FED120B8D
:1035000053EC102BFDF712F902D2012000F0B8FDA8
:1035100051EC180BBDEC088B02B0BDE81040FDF774
:10352000ABBA000000000000000000000000F03F07
:10353000000000000000E03F000000000000E0BFCD
:103540000000C0FFFFFFDF41000000000000E0C1FD
:1035500010B52DED020B2DED088B84B09DED0C0BFD
:1035600051EC100BFDF744FA41EC180B9DED0C0BE0
:1035700053EC182B51EC100BFCF799FF41EC190B95
:103580000D989FED290B10F0004F53EC102B51ECD0
:10359000190B9FED21AB9FED22BB0ED0FDF7C6F8B6
:1035A0000ED953EC1B2B51EC190BFDF7D7F81CD29D
:1035B00014E000BF41EC180B17E0FDF7B7F806D296
:1035C00053EC1A2B51EC180BFCF771FFF2E753EC9C
:1035D0001B2B51EC190BFDF7C1F806D853EC1A2B35
:1035E00051EC180BFCF7C2FEE4E78DED028B9DED6C
:1035F0000C0B18EE901A10EE900A8DED000B61F393
:103600001E0003909DED020B04B0BDEC088B02B0D0
:1036100010BD000000000000000000000000F03FAE
:10362000000000000000E03F000000000000E0BFDC
:1036300010B52F499FED2C1B2DED020B84B0059882
:1036400020F000408842DCBF00209DED040B32DDFD
:103650002849884209D1049840B94FF0010000F090
:103660000FFD00F0DDFC06B010BD05DB9DED040B89
:1036700000F0C2FC06B010BD68469DED040B00F0E2
:10368000D3F810F0030011D0012818D09DED021BD3
:103690009DED000B02281AD000F0E2FA51EC100B5D
:1036A00081F0004106B041EC100B10BD9DED021BF6
:1036B0009DED000B012000F007FC06B010BD9DED54
:1036C000021B9DED000B00F0CBFA06B010BD0120EF
:1036D00000F0FAFB51EC100B81F0004106B041EC18
:1036E000100B10BD000000000000000000000000F2
:1036F000FB21E93F0000F07F00B52DED048BB0EE1B
:10370000409AF0EE609A83B051EC190BFDF71FF967
:1037100041EC180B18EE100A18EE901A8DED008B84
:10372000002818BF0120084320F00040C0F17F604E
:1037300000F1E040C00F14D019EE101A19EE900AF3
:103740008DED009B002918BF0121084320F00040A7
:10375000C0F17F6000F1E040C00F04BF012000F025
:103760008FFCB0EE480A03B0F0EE680ABDEC048BA3
:1037700000BD00000000000010B52DED020B2DED86
:10378000048B84B09DED080B51EC100BFDF730F964
:1037900041EC180B9DED080B53EC182B51EC100B62
:1037A000FCF785FE41EC100B09989FED1D1B10F0F6
:1037B000004F53EC112B51EC100B9FED179B09D0D0
:1037C000FCF7CCFF11D253EC192B51EC180BFCF782
:1037D000CDFD08E0FCF7AAFF07D253EC192B51EC02
:1037E000180BFCF764FE41EC180B8DED028B9DED80
:1037F000080B18EE901A10EE900A8DED000B61F395
:103800001E0003909DED020B04B0BDEC048B02B0D2
:1038100010BD000000000000000000000000F03FAC
:1038200000000000000000002DE9F14F04462DEDDE
:10383000020B2DED088B8AB09FEDE70B80ED020B9C
:10384000139EE74826F0004585420ADC9DED120BE9
:10385000002084ED000B0AB0BDEC088B03B0BDE87E
:10386000F08FE0489FEDE0AB9FEDE1BBA84247DD64
:10387000E14F9FEDE39B9FEDE48B9DED120B53EC2D
:103880001A2B51EC100B002E1CDDFCF710FE41EC46
:10389000100BBD4208D053EC1B2B51EC100BFCF766
:1038A00006FEC4E900010BE053EC192B51EC100BA0
:1038B000FCF7FDFD53EC182BFCF7F9FDC4E9000102
:1038C0000120C8E7FCF752FD41EC100BBD4208D0C7
:1038D00053EC1B2B51EC100BFCF748FDC4E9000125
:1038E0000BE053EC192B51EC100BFCF73FFD53ECA4
:1038F000182BFCF73BFDC4E900014FF0FF30AAE7AD
:10390000C348A84279DB9DED120B51EC100B00F07F
:1039100025FE41EC180B9FEDC00B53EC102BFCF770
:10392000CCFD9FEDBF1B53EC112BFCF71FFDFCF7EB
:10393000B2FE0746FDF706F941EC190B53EC1A2BC2
:10394000FCF7BBFD53EC182BFCF7B4FD41EC180B56
:1039500053EC1B2B51EC190BFCF7AFFDDFF8C8A2A1
:1039600041EC100B4FEA15580125FA4453EC102B8B
:1039700051EC180BFCF79BFD032DC4E900013DD071
:10398000C1F30A5005EB4511A8EB00001139814243
:1039900034DA0AEB051BB0EE48AA9BED000BF0EE03
:1039A00068AA53EC102B51EC190BFCF786FD41EC87
:1039B0001B0B51EC1A0B53EC1B2BFCF778FD41EC65
:1039C000180B51EC1A0B53EC182BFCF770FD53EC51
:1039D0001B2BFCF76CFD9BED020B41EC1A0B53EC1F
:1039E000102B51EC190BFCF768FD53EC1A2BFCF76C
:1039F0005EFD41EC100B6D1CB8E70EE0002EA8BF79
:103A00003846BFF628AF94ED000B51EC100B81F057
:103A10000041C4E9000178421DE7C6F3130040F4F9
:103A2000801EC6F30A50A0F2F530471100F01F05C2
:103A3000C5F12000DDF848B00890002006900790FE
:103A40000520EC467949002D07EB0002794408BFB8
:103A500051F8221009D051F8223001EB8201AB401D
:103A60004A68089922FA01F11943A1FB0E26A1FB2D
:103A70000B131A449A4234BF0123002303EB0608B8
:103A80000CEB8003D3E901A60E448E4234BF012122
:103A9000002192448A4411B1924502D903E0924533
:103AA00001D2012100E00021C3E901A641444CF804
:103AB0002010011EA0F10100C4DC029800F10050AA
:103AC000850F0298DDE903678000DDF81480FDF7BB
:103AD00039F841EC1A0B3046FCF7D0FD9FED541B32
:103AE00053EC112BFCF7E9FC41EC1B0B3846FCF7BF
:103AF000C5FD9FED511B53EC112BFCF7DEFC41EC97
:103B0000180B4046FCF7BAFD9FED4D1B53EC112BF3
:103B1000FCF7D3FC41EC190B51EC180B53EC192BAF
:103B2000FCF724FC53EC1B2BFCF720FC53EC1A2B6A
:103B3000FCF71CFCCDE90801002008909DED080B66
:103B400053EC1A2B51EC100BFCF7B1FC53EC1B2B74
:103B5000FCF7ADFC53EC182BFCF7A9FC53EC192B2C
:103B6000FCF7A8FC9FED381B53EC112BFCF7A5FCD0
:103B70009FED370B41EC180B53EC102B9DED080B10
:103B800051EC100BFCF799FC53EC182BFCF7EEFBF7
:103B90009FED310B41EC180B53EC102B9DED080BF6
:103BA00051EC100BFCF789FC53EC182BFCF7DEFBF7
:103BB00041EC100B139810F0004F06D06D4251EC01
:103BC000100B81F0004141EC100B284684ED000BF6
:103BD00041E60000000000000000000000000000BE
:103BE000FB21E93F7CD9024000004054FB21F93F12
:103BF0003163621A61B4D03DFB21F93F000000003F
:103C00000000601A61B4D03D7370032E8A19A33B83
:103C1000FB2139410000000083C8C96D305FE43FDB
:103C2000000000000000E03FF29800004098000013
:103C3000000000000000103E000000000000103CEA
:103C4000000000000000103A182D4454FB21F93DFB
:103C50003326A611460B113C00000054FB21F93D10
:103C600010B52DED040B2DED088B82B0B0EE419A0E
:103C7000F0EE619A0B9820F000449FED4BABB4F14D
:103C8000795F11DA9DED0A0B51EC100BFCF703FD87
:103C9000002801BFB0EE4A0AF0EE6A0A02B0BDEC9D
:103CA000088B04BF04B010BD9DED0A0B53EC102B24
:103CB00051EC100BFCF701FC41EC180B3C480621C1
:103CC000B0EE480AF0EE680A784400F081F853EC50
:103CD000182B51EC100BFCF7F0FB9DED0A0B41EC9F
:103CE0001B0B53EC192B51EC100BFCF7E6FB41ECD2
:103CF000190B53EC1B2B51EC180BFCF7DEFB53ECB0
:103D0000192BFCF7D4FB9FED2C0B41EC190B53EC5A
:103D1000102B51EC180BFCF7D0FB41EC100B284892
:103D2000844210DA53EC192B51EC100BFCF7BFFB5B
:103D300053EC1A2BFCF7BEFB41EC100B02B0BDECB0
:103D4000088B04B010BD1F48A042BCBF9FED1E1BD6
:103D50008DED001B06DBA4F5001001900020009003
:103D60009DED001B51EC100B53EC112BFCF79FFB4E
:103D70009DED000B41EC180B53EC102B51EC1A0B82
:103D8000FCF795FB41EC1A0B53EC192B51EC180B7B
:103D9000FCF78DFB53EC1A2BFCF78CFB41EC100B62
:103DA000CCE7000000000000000000000000F03F31
:103DB0005C95000000000000000000000000E03FF3
:103DC0003333D33F0000E93F000000000000D23F42
:103DD00070B504462DED028B4D1E00EBC500B0EE14
:103DE000408AF0EE608A90ED000B35F0060017D0A7
:103DF00053EC182B51EC100BFCF75FFB41EC100B54
:103E00006D1E04EBC50090ED001B51EC100B53EC44
:103E1000112BFCF7ABFA41EC100B35F00600E7D1A3
:103E2000022D36D0042D1CD0062D1CBFBDEC028BFC
:103E300070BD53EC182B51EC100BFCF73EFB94EDCE
:103E40000A1B53EC112BFCF791FA53EC182BFCF7DF
:103E500034FB94ED081B53EC112BFCF787FA41EC73
:103E6000100B53EC182B51EC100BFCF726FB94EDC8
:103E7000061B53EC112BFCF779FA53EC182BFCF7CB
:103E80001CFB94ED040B53EC102BFCF76FFA41EC88
:103E9000100B53EC182B51EC100BFCF70EFB94EDB0
:103EA000021B53EC112BFCF761FA53EC182BFCF7B7
:103EB00004FB94ED001B53EC112BFCF757FABDECFF
:103EC000028B41EC100B70BD31B504462DED040B97
:103ED0002DED0A8BB0EE41BAF0EE61BA0B989DED74
:103EE0000A0B20F00040B0F1795F0DDA51EC100BB5
:103EF000FEF784FE042808BF00F0A2F89DED0A0B2F
:103F0000BDEC0A8B05B030BD53EC102B51EC100BFF
:103F1000FCF7D3FA41EC180B9DED0A0B53EC182B70
:103F200051EC100BFCF7C9FA41EC190B2C48B0EE20
:103F3000480AF0EE680A05217844FFF749FF9FED33
:103F40002ACBB0EE40AAF0EE60AA9CB353EC1C2B37
:103F500051EC190BFCF7B1FA41EC1C0B53EC1A2B8A
:103F600051EC190BFCF7A9FA9FED210B41EC190B51
:103F700053EC102B51EC1B0BFCF79FFA53EC192B55
:103F8000FCF795FA53EC182BFCF797FA53EC1B2B24
:103F9000FCF78DFA53EC1C2BFCF789FA9DED0A1BFC
:103FA00053EC112BFCF786FABDEC0A8B05B041EC03
:103FB000100B30BDFFE753EC1A2B51EC180BFCF73C
:103FC0007CFA53EC1C2BFCF7D1F953EC192BFCF7C2
:103FD00074FA9DED0A1B53EC112BFCF7C7F9E3E7CC
:103FE000EC93000000000000495555555555C5BFDC
:103FF000000000000000E03F10B553EC102B51EC26
:10400000100BFCF7B3F941EC100B10BD10B553ECDD
:10401000112B51EC100BFCF7A9F941EC100B10BD62
:104020009FED050B10B553EC102B51EC100BFCF76A
:10403000B6FA41EC100B10BD0000000000000000BB
:104040009FED050B10B553EC102B51EC100BFCF74A
:1040500034FA41EC100B10BD00000000000000100D
:1040600002E008C8121F08C1002AFAD17047704741
:10407000002001E001C1121F002AFBD1704700009F
:104080000149086070470000B400002010B50446E4
:10409000204608F0A7FA10BD2DE9FF4F8DB09B46D2
:1040A0000F460446002606E025280BD05A460F99F5
:1040B0009047641C761C20780028F5D111B030465A
:1040C000BDE8F08F0025A8460122984900E005438D
:1040D00014F8013F203B02FA03F00842F7D12078A0
:1040E0002E2817D114F8010F45F004052A280ED008
:1040F0006FF02F022078A0F1300109290AD808EBCF
:10410000880102EB410100EB0108641CF2E757F85B
:10411000048B641C20786C280DD004DC4C2812D051
:104120006A2811D104E074280DD07A280CD10AE055
:1041300045F4001507E0617845F48015814202D10D
:10414000641C05F58015641C2078692844D008DCBF
:104150000028B3D0582867D063280FD0642808D12E
:104160003AE0702865D0732812D075285AD0782884
:104170005AD05A460F999047761CD5E017F8040B91
:104180008DF8000000208DF80100E946012003E0D1
:1041900057F8049B4FF0FF3069074FF0000501D43A
:1041A0000AE06D1C45450DDA8542FADB19F8051069
:1041B0000029F6D106E06D1C8542FCDB19F80510DC
:1041C0000029F8D12E4404E019F8010B5A460F9942
:1041D00090476D1EF8D2A7E00A200021CDE9080122
:1041E000C5F3025002280CD001CFC117021E71F195
:1041F00000020CDA0023D0EB030063EB01012D2257
:1042000008E0FF1D27F00707F7E80201EEE72A059F
:1042100004D52B228DF8282001223CE0EA073AD071
:104220002022F7E70A2000E010200021CDE9080154
:1042300007E01020002145F00405CDE908014FF00A
:104240000808C5F30250022810D001CF00214FF01A
:10425000000A2A0720D52278702A0DD0DDE908C38C
:104260008CF0100C5CEA030C0CD015E0FF1D27F05D
:104270000707F7E80201EAE740228DF828204FF00F
:10428000010A0CE050EA010306D030238DF82830F3
:104290008DF82920022292462278582A04D024A29E
:1042A0000DF120090B9209E026A2F9E7DDE90823C8
:1042B000FBF7FAFF0B9B9B5C09F8013D50EA0102FA
:1042C000F4D1ADEB090020300890680701D44FF01D
:1042D00001080899884503DD0898A8EB000000E074
:1042E00000208046002506E00AA85A46405D0F9946
:1042F00090476D1C761C5545F6DB04E030205A468D
:104300000F999047761CB8F10001A8F10108F5DC7F
:1043100005E019F8010B5A460F999047761C089949
:10432000481E08900029F4DC641CC4E6092801003A
:10433000303132333435363738396162636465661B
:1043400000000000303132333435363738394142DD
:10435000434445460000000010B541EC100BFEF749
:1043600083FC51EC100B10BD70B52DED068B05468E
:104370009FED340AB0EE408A002421E005EB840072
:1043800090ED000A10EE101A0846FCF7BCF941EC5B
:10439000190B9FED2D0B53EC102BFCF7C7F90DD02B
:1043A00005EB8400D0ED000A05EB840090ED001AC7
:1043B000B0EE480A00EE810AB0EE408A601CC4B23A
:1043C000032CDBDB18EE100AFCF79DF941EC1A0B0D
:1043D000B0EE4A0AF0EE6A0AFFF78EF9B0EE409AA4
:1043E000F0EE609A51EC190BFCF7D0F908EE100AC8
:1043F00018EE100AFCF787F941EC1A0B53EC1A2B54
:104400009FED130B51EC100BFCF7C9F841EC190BA5
:10441000FCF7BCF908EE900A00240BE005EB8400E1
:1044200090ED000A20EE280A05EB840080ED000ADA
:10443000601CC4B2032CF1DBB0EE480ABDEC068B65
:1044400070BD00000000000000000000000000003F
:10445000000000000000F03F00207047704700009F
:104460000449497801B170470021024AD17200BF66
:10447000F9E70000AC0E00207047000010B50446BC
:1044800005480078022800D110BD03F0BDFE20468B
:10449000FFF7E6FF00BFF7E7AC0E002010B50446BB
:1044A00002E00120FFF7F2FD201EA4F101018CB211
:1044B000F7D110BD70B52DED068BB0EE408A0446E5
:1044C000B3EE040A28EE000A10EE101A0846FCF7B4
:1044D0001AF941EC1A0BB0EE4A0AF0EE6A0AFEF73E
:1044E0002FFEB0EE409AF0EE609A51EC190BFCF7FB
:1044F000F1F885B214E00E48407810B1BDEC068B9F
:1045000070BD14B904F006FA07E003F0B9FF0848DB
:10451000807800F0020000B1F0E73220FFF7B6FD2E
:10452000281EA5F101018DB2E5DC00BFE6E7000021
:10453000AC0E002010B50446204601F0FBFC10BD77
:10454000014A1154704700002001002001F04EFE86
:1045500003E04FF4FA7008F045F8FAE782B0CDE9CD
:10456000000121F0004001909DED000B02B051ECE4
:10457000100B704738B504460D4600944FF47A731B
:10458000012269460248FDF7D4FE204638BD0000EE
:104590003405002001B5AEB04021F848FBF7CEFE4F
:1045A000F649491CF64802680A6042684A60028976
:1045B0000A81807A887200202C902890279026907B
:1045C0002590249023902E980078242808D12398B1
:1045D00040F0010023900121E848417000218170E2
:1045E00000201E901D90239800F0010010B10320C0
:1045F000219001E000202190D7E29DF884102E98B0
:10460000405C20902098412802DB20985A2802DD47
:1046100001202FB000BD9DF88400401CC0B2219045
:104620001FAA21A92E9804F081FF08B90220F0E703
:104630001F98FCF768F8CDE910019DED100BFFF70E
:104640009BF88DED120B9DED120B51EC100BFCF74E
:1046500041F8C0B21E90DDED1F0A9DED1E0AB8EEB6
:10466000400A30EEC00ADFEDC70A20EE200A8DEDC9
:104670000F0A0F98FCF747F8CDE910019DED100BDC
:10468000FEF766FF8DED120B9DED120B51EC100B3A
:10469000FCF720F880B21D902098472802D04D28C2
:1046A00073D130E11E982B2870D024DC12286ED0F4
:1046B00010DC032873D006DC00286DD001286CD0F4
:1046C000022868D16AE0042840D00A2832D0112894
:1046D000F7D195E01C282ED006DC13287DD01428B5
:1046E0007CD01528EDD1B8E01E2825D0262857D03B
:1046F0002828E6D1BAE03B2871D00ADCA0F13100CD
:104700000A2848D2DFE800F0B6E5E5E523D1D2D3A8
:10471000D4D55B287FD006DC3D286FD0502846D00A
:104720005A28CED176E05C2807D05D2867D05E2875
:10473000C7D188E000BF00BF00BF1D9828B92C98E2
:1047400008B1182065E701202C9000BF00BF0020B1
:1047500022908A491E9808701E981C2805D01E9821
:104760001E2802D01E985C280ED11D9820B11D98DD
:104770000A2801D014204CE7804801781D9808448D
:104780007E49087000201D90A5E036E171E038E018
:1047900005E001E001E09CE000BF00BF00BF00BFFA
:1047A0002C9808B1182034E702202C9000BF01207B
:1047B000229072491E9848701E9826281CD11D9878
:1047C00014280DD01D981E280AD01D98282807D01F
:1047D0001D98322804D014201BE713E03CE069E068
:1047E0000A211D9890FBF1F064306449497808442F
:1047F0006249487000201D906DE00CE062E021E00D
:1048000000BF00BF022022901E981138C1B25B4841
:10481000417160E000BF1D9838B9032022901E98B6
:104820005A38C1B2554801710BE0042022901D98FE
:104830000A2802D11E985A2801D11420E9E6002046
:104840001D9048E000BF052022901E98C0F15E0038
:10485000C1B24A4881703EE000BF062022901E98F7
:10486000C0F11500C1B24548C17034E00720229064
:1048700031E000BF082022902C9808B11820C8E62B
:1048800003202C901E98312803D100213B488171D0
:1048900008E01D980A2803D101213848817101E000
:1048A0001420B6E600201D9015E000BF00BF00BF39
:1048B00000BF00BF092022901E983638C1B22F4891
:1048C000C17108E00A2022901D9808B11420A0E6CA
:1048D00001E014209DE600BF1D98002801DD17208F
:1048E00097E60121229801FA00F02599084008B1C5
:1048F00015208EE60121229801FA00F0259908433F
:1049000080B2259050E11D98002801DD172080E637
:104910001E98042827D007DC78B101280ED0022881
:104920000DD0032854D11DE005281DD0082839D00A
:10493000092838D01E284BD102E000BF00BF00BFBD
:104940000B2022901E9810B1012805D103E003210D
:104950000A48017204E003E008491E98087200BF8B
:1049600000BF37E000BF00BF0C2022901E98032834
:104970000AD004280CD0052812D10DE038070020F9
:10498000F40600200000C8421021FE48817207E0B2
:104990002021FC48817203E00021FA48817200BFA7
:1049A00000BF17E000BF0D2022901E98082802D0FB
:1049B00009280BD106E0F348407A40F04001F14865
:1049C000417203E00021EF48417200BF00BF01E0E7
:1049D00014201EE600BF0121229801FA00F025995B
:1049E000084008B1152014E60121229801FA00F0D0
:1049F0002599084380B22590D6E02098463815289E
:104A000079D2DFE800F00BA2A2131F2B37A23DA240
:104A100053A25B636BA2A2A27E8A96000020229022
:104A20009DED1F0AD74880ED030A90E001202290F7
:104A30009DED1F0AD34880ED040A269840F001003E
:104A4000269084E0022022909DED1F0ACD4880ED43
:104A5000050A269840F00200269078E00320229074
:104A60009DED1F0AC74880ED060A269840F0040015
:104A700026906CE004202290C2491E98087766E0D8
:104A8000052022901F98FBF73EFECDE910019DED19
:104A9000100BFEF771FE8DED120B9DED120B51EC1C
:104AA000100BFBF7F8FDB749086250E00620229092
:104AB0009DED1F0AB34880ED090A48E007202290C7
:104AC0009DED1F0AAF4880ED0A0A40E008202290C1
:104AD0009DED1F0AAB4880ED0B0A38E009202290BB
:104AE0009DED1F0ADFEDA80AB4EEE00AF1EE10FA20
:104AF00002DD26208DE528E0A2491E9881F83000CD
:104B000025E00A2022909DED1F0A9E4880ED0D0AA7
:104B1000279840F00100279019E00B2022909DED8E
:104B20001F0A984880ED0E0A279840F0020027904F
:104B30000DE00C2022909DED1F0A924880ED0F0A97
:104B4000279840F00400279001E0142061E500BFA1
:104B50000121229801FA00F02499084008B1192097
:104B600057E50121229801FA00F040F26131084036
:104B700088B11F98FBF7C7FD9FED840B53EC102BFA
:104B8000CDE912019DED120B51EC100BFBF7CEFDA0
:104B900001D204203DE50121229801FA00F0249978
:104BA000084380B2249000BF00BF9DF884102E9867
:104BB000405C00287FF421AD279818B12C9808B9E3
:104BC00002202C90249800F0200030B16D48016A3A
:104BD0007048814201DD1B201BE5239800F0010095
:104BE00028B3249800F0010008B9162011E56548A3
:104BF000C07801285CD16348C0680F90FBF783FD43
:104C00009FED650B53EC102BCDE910019DED100BC2
:104C100051EC100BFBF751FCCDE912019DED120B8D
:104C200051EC100BFBF7B2FD5649C86040E0554807
:104C3000807801280FD12C98022839D1514840782A
:104C4000502835D04F48407858B3249800F00100E0
:104C500038BB1620DDE45248407810BB249800F0A1
:104C60000100F8B14748C078012821D14548C06803
:104C70000F90FBF748FD9FED480B53EC102BCDE94F
:104C800010019DED100B51EC100BFBF716FCCDE95C
:104C900012019DED120B51EC100BFBF777FD39491A
:104CA000C86005E03E4890ED040A364880ED030AEE
:104CB000249800F4807028B9394890ED030A3148EF
:104CC00080ED0B0A2F480078042809D1249800F0C1
:104CD000400008B91C209CE4249820F04000249057
:104CE0002848407910B101280ED106E000202B9011
:104CF00001202A90022029900DE002202B90002014
:104D00002A900120299006E001202B9002202A9071
:104D10000020299000BF00BF1A48C078012843D165
:104D200000201C902CE001211C9801FA00F027992A
:104D3000084008B3134834301C9950F821000F90F4
:104D4000FBF7E1FC9FED140B53EC102BCDE91001A8
:104D50009DED100B51EC100BFBF7AFFBCDE91201F1
:104D60009DED120B51EC100BFBF710FD01460548B1
:104D700034301C9A40F822101C98401CC0B21C9081
:104D80001C980FE03807002000007F43000000005F
:104D90000000000080969800666666666666394088
:104DA000F40600200328BEDB2C98032809D1F7481D
:104DB0008079012805D1279880F0040008B12520CA
:104DC00027E4F34A283207CA19AB07C3259800F431
:104DD0000070A0B1ED48C079062801DD1D2018E45F
:104DE000EB488179E948C079814208D0E748C07929
:104DF00019A9149005F0DDFC08B9072009E4E3487F
:104E000000780A2802D05C287DD1A3E0279808B951
:104E10001A200CE4249800F0500008B91C2006E485
:104E2000DA48406A0F90FBF76EFCCDE910019DED6A
:104E3000100BFEF7A1FC8DED120B9DED120B51EC4A
:104E4000100BFBF747FCC0B228902898062801DD1C
:104E50001D2077E4CD48007F14280BD0CB48007F7D
:104E6000022805D1249800F0800018B1142069E4CC
:104E7000142067E4249820F05000249028980028FB
:104E800004DD2898401EC0B2289002E0BF48C079D7
:104E90002890BE491031289805F08BFC08B90720EE
:104EA00050E400201C9051E001211C9801FA00F010
:104EB0002799084040B3B548007F142835D1B4483D
:104EC0001C301C9900EB810090ED000AB048343092
:104ED00000EB8100D0ED000A30EE600AAB483430C0
:104EE00000EB8100D0ED000A30EE600AA7481030D8
:104EF00000EB810080ED000A1C98022822D1A34813
:104F000010301C9901E07DE01CE000EB810090ED89
:104F1000000A9F48D0ED100A30EE600A9B4810301E
:104F200000EB810080ED000A0CE0984834301C99B9
:104F300000EB810090ED000A9448103000EB8100F6
:104F400080ED000A1C98401CC0B21C901C980328DD
:104F5000AADB2BE1279808B91A200CE400201C904A
:104F60004CE001211C9801FA00F02799084098B301
:104F700087481C301C9900EB810090ED000A19A9AC
:104F80001C9801EB8000D0ED000A30EE600A7F48EB
:104F900034301C9900EB8100D0ED000A30EE600A3D
:104FA0007A48343000EB810080ED000A1C9802281A
:104FB00020D1764834301C9900EB810090ED000A36
:104FC0007348D0ED100A30EE600A7048343000EBC0
:104FD000810080ED000A0DE0FFE76D4834301C9938
:104FE00000EB810090ED000A6848343000EB81004E
:104FF00080ED000A1C98401CC0B21C901C9803282D
:10500000AFDBD3E02C98032872D02798F0B30020B0
:105010001C906AE001211C9801FA00F027990840D1
:1050200068B95B481C301C9900EB810090ED000AC8
:105030005648343000EB810080ED000A51E05348BF
:10504000007835284DD051480079A0BB19A91C988B
:1050500001EB800090ED000A4D4834301C9900EBC4
:105060008100D0ED000A30EE200A4848343000EBD1
:105070008100D0ED000A30EE200A4448343000EBC5
:10508000810080ED000A1C98022800E030E028D161
:105090003E4834301C9900EB810090ED000A3C48FA
:1050A000D0ED100A30EE200A3848343000EB810091
:1050B00080ED000A15E0FFE7344834301C9900EB1E
:1050C000810090ED000A32481C3000EB8100D0EDE9
:1050D000000A30EE200A2D48343000EB810080EDCC
:1050E000000A1C98401CC0B21C901C98032891DB3D
:1050F00026480078282846D006DC1C2809D01E281F
:1051000008D0262850D13DE0352843D066284BD121
:105110003AE000BF1D4800781C2807D11B49103118
:10512000062005F046FB48B9072052E41749103124
:10513000072005F03EFB08B907204AE42798F0B1A4
:1051400000201C9017E001211C9801FA00F027991B
:10515000084060B90E481C301C9900EB810090EDAE
:10516000000A0A48103000EB810080ED000A1C980C
:10517000401CC0B21C901C980328E4DB01E0002016
:105180002C9011E000BF0FE00EE000003807002077
:10519000F4060020FE48407828B1FD4840780128F8
:1051A00001D01E2015E400BF00BF00BF00BFF848BB
:1051B0004078502804D1279800280BD01F2008E4FD
:1051C0002C98022806D1F248407820B92798002868
:1051D000F8D12C90B9E2EE48C0681190FBF793FA31
:1051E0009FEDEC0B53EC102BCDE912019DED120B52
:1051F00051EC100BFBF79AFA01D116207AE4E4483F
:1052000040788C287ED006DC01280BD002280ED0F6
:1052100003280BD110E08D2875D08E2874D08F28EC
:10522000F7D16FE2279808B900202C908CE22398E0
:1052300040F00400239000BF279808B91A2059E4D1
:1052400001212B9801FA00F001222A998A4010438B
:105250002799084008B920204CE4CD4834302B99D8
:1052600000EB810090ED000ACC4800EB8100D0ED0E
:10527000000A30EE600A8DED140AC54834302A99D0
:1052800000EB810090ED000AC44800EB8100D0EDF6
:10529000000A30EE600A8DED130A249800F08000B9
:1052A00098B3249820F0800024900C22B84934311F
:1052B000BA48FBF74EF808B921201BE4B448C0787F
:1052C00001281AD1B248806A0D90FBF71CFA9FEDB5
:1052D000B40B53EC102BCDE90E019DED0E0B51ECF0
:1052E000100BFBF7EAF8CDE910019DED100B51EC26
:1052F000100BFBF74BFAA64988629DED130A20EECE
:10530000000A03E003E2FCE102E2FFE08DED0B0A9C
:105310000B98FBF7F8F9CDE90E019DED140A20EE8C
:10532000000A8DED070A0798FBF7EDF9CDE90A01B0
:105330009748806A0390FBF7E6F9CDE906019448A7
:10534000806A0190FBF7DFF99FED970B53EC102B70
:10535000CDE902019DED020B51EC100BFBF7ADF80E
:10536000CDE904019DED060B53EC102B9DED040BD4
:1053700051EC100BFBF7A1F8CDE908019DED0A0BEC
:1053800053EC102B9DED080B51EC100BFBF78FF835
:10539000CDE90C019DED0E0B53EC102B9DED0C0B8C
:1053A00051EC100BFBF783F8CDE910019DED100BCC
:1053B00051EC100BFBF7EAF912909DED120AB5EED5
:1053C000C00AF1EE10FA01D2222005E4DDED130A45
:1053D0009DED140A01F082FA8DED0B0A0B98FBF794
:1053E00092F9CDE90E011298FBF78DF9CDE908018C
:1053F0009DED080BFEF780F98DED0A0B9DED0A0B74
:1054000051EC100B81F00041CDE90C019DED0E0B2C
:1054100053EC102B9DED0C0B51EC100BFBF7BFF870
:10542000CDE910019DED100B51EC100BFBF7AEF91F
:10543000129057484078032805D19DED120AB1EE2D
:10544000400A8DED120A524890ED0A0AB5EEC00AE4
:10545000F1EE10FA0BD29DED120AB1EE400A8DED7D
:10546000120A90ED0A0AB1EE400A80ED0A0A9DED9B
:10547000140ADDED130A9DED121A00EEC10A8DED3E
:105480000D0A0D98FBF73FF99FED490B53EC102BDC
:10549000CDE90E019DED0E0B51EC100BFBF70DF855
:1054A000CDE910019DED100B51EC100BFBF76EF9DF
:1054B0000146374810302B9A40F822109DED130A10
:1054C000DDED140A9DED121A00EE810A8DED0D0A34
:1054D0000D98FBF718F99FED360B53EC102BCDE927
:1054E0000E019DED0E0B51EC100BFAF7E6FFCDE926
:1054F00010019DED100B51EC100BFBF747F9014625
:10550000234810302A9A40F82210F9E001212B9804
:1055100001FA00F001222A998A4010432699084096
:1055200008B923204CE4249820F00E002490184859
:10553000C078012847D100201C9041E001211C982F
:1055400001FA00F02699084008B3114810301C9960
:1055500050F821000B90FBF7D6F89FED110B53ECA0
:10556000102BCDE90C019DED0C0B51EC100BFAF753
:10557000A4FFCDE90E019DED0E0B51EC100BFBF7D6
:1055800005F90146024810301C9A40F8221013E039
:105590003807002000000000000000001007002075
:1055A00066666666666639400000000000001040CE
:1055B000000000000000E03F1C98401CC0B21C909E
:1055C0001C980328BADBFE482B9900EB8100D0ED34
:1055D000000A9DED140A30EE600A8DED140AF848B9
:1055E0002A9900EB8100D0ED000A9DED130A30EE00
:1055F000600A8DED130ADDED130A9DED140A01F02A
:105600006DF98DED120AEE482A9900EB810090EDBC
:10561000000A8DED100AEA482B9900EB810090ED0D
:10562000000A8DED0F0ADDED100A9DED0F0A01F065
:1056300055F9E348103880ED0A0AD0ED0A0A9DEDCD
:10564000120A30EE600A8DED0B0A0B98FBF75BF83F
:10565000CDE90C019DED0C0BFDF762FE8DED0E0BFF
:105660009DED0E0B51EC100BFBF790F8119011987B
:10567000FBF749F89FEDD30B53EC102BCDE90E014E
:105680009DED0E0B51EC100BFBF768F837D211981B
:10569000FBF739F81FED3A0B53EC102BCDE90E0157
:1056A0009DED0E0B51EC100BFBF758F801D22120A9
:1056B00053E4C3481038806A0990FBF724F89FED43
:1056C000C30B53EC102BCDE90A019DED0A0B51ECF5
:1056D000100BFAF7F2FECDE90E011198FBF713F863
:1056E000CDE90C019DED0E0B53EC102B9DED0C0B39
:1056F00051EC100BFBF732F801D221202DE400BF52
:1057000022E000BF239840F01000239000BF00BFAC
:10571000AB48103840788E2804D0A948103840781B
:105720008F2803D1239840F008002390279808B9C8
:105730001A2012E40C22A2492431A648FAF709FEE5
:1057400008B9212009E400BF00BF239800F0010040
:1057500020B1249820F02100249004E040F221316F
:105760002498884324902C9818B1249820F4E05071
:105770002490249808B12420D7E416A8159000217D
:105780001598016041608160239800F00100A0B38A
:10579000259820F0490008B11020C6E48848103848
:1057A0000078352805D086481038007808B11020D8
:1057B000BBE488481C3890ED030A159880ED010A77
:1057C00084481C38407A83491C39097A08438DF88B
:1057D00060007B49103916A801F0A6F814901498BF
:1057E00048B97C491C3976481038D0E90D23C06B84
:1057F000C1E907234862149897E4FFE7764890F8D8
:10580000480000F00200C0B36D481038407801280D
:105810000DD06B4810384078022808D068481038FE
:105820004078032803D0239840F040002390279825
:1058300038B12C98022804D1239840F0800023909E
:1058400024E064481C38407A10281FD161481C3875
:105850000078012809D05F481C380078022804D05D
:105860005C481C380078032808D1239800F04000D9
:1058700018B1239840F02000239007E0239800F00F
:10588000400018B9239840F0200023904C4810386D
:10589000016A50481C3881614948103881784D4868
:1058A0001C384170407828B11598007A40F0080102
:1058B000159801724248103890ED030A45481C388B
:1058C00080ED040A90ED040A159880ED000A414825
:1058D0001C3890ED030A3A481038D0ED0B0AB4EEAC
:1058E000600AF1EE10FA03D1239800F0200050B3C3
:1058F00038481C38407AF0B1239800F08000D0B9C5
:10590000239800F0400040B132481C38407A9FEDA7
:10591000330A149005F00CFA0DE02948103890ED88
:105920000B0A8DED140A2B481C38407A13909DED1C
:10593000140A05F0FDF92248103890ED0B0A2548AD
:105940001C3880ED030A239800F0400030B921484C
:105950001C3890ED030A159880ED010A184810389C
:1059600090F830001B491C3908750846417A1448E4
:105970001038807A814212D0159890ED010A8DED91
:10598000140A0F481038807A13909DED140A05F020
:10599000CFF90B481038807A0E491C394872159897
:1059A000007A0C491C39497A08431599087209484C
:1059B0001C38017A02481038407A814219D00FE031
:1059C000480700207B14AE47E17A743FFCA9F1D26E
:1059D0004D62503F10070020240D00200000000001
:1059E000B448407A1490FEF749FDB248407AB24973
:1059F00008721598007AB049097A08431599087217
:105A0000AC480078042808D1AA4890ED090A8DED29
:105A1000140A9DED140A01F0E7FCA6484079A64956
:105A20000871A448C07888702C9803281CD1A1481C
:105A3000807948710846407920B91FED180A9D48C1
:105A400080ED0F0A9C4890ED100A9A48D0ED0F0A9D
:105A5000B4EE600AF1EE10FA06D090ED0F0A964807
:105A600080ED100A06F0A2FC934881799148C07934
:105A700081420AD08F48C0798F498871084619A998
:105A80000EC928300EC006F091FC8A4800798A4978
:105A9000C8708848007826283FD006DC0A280BD03A
:105AA0001C281ED01E2857D11CE028283BD05C287B
:105AB0003FD0662850D147E07E491031289805F044
:105AC00010F97D4881792898814209D17A4979482D
:105AD000D0E904238069C1E90A23086306F066FC63
